:100000000C943F010C9470010C9470010C947001DD
:100010000C9470010C9470010C9470010C9470019C
:100020000C9470010C9470010C9470010C9470018C
:100030000C9470010C9470010C9470010C9470017C
:100040000C9470010C9445030C9470010C94700195
:100050000C9470010C9470010C9470010C94A00726
:100060000C9470010C94DA0A0C94100B0C9470012F
:100070000C9470010C9470010C9470010C9470013C
:100080000C9473030C9470010C9470010C94700127
:100090000C9470010C9470010C9470010C9470011C
:1000A0000C9470010C9470010C94A1030C947001D9
:1000B0000C9470010C9470010C9470010C94CF039B
:1000C0000C9470010C9470010C9470010C947001EC
:1000D0000C9470010C9470010C9470010C947001DC
:1000E0000C947001BC08BF08AE08B208B808F60846
:1000F000C308C708CD08D108D508DB08DF08E30826
:10010000F608E908ED08F1080C94D1080C94AF0149
:100110000C94DF080C94BC080C94440B0C94C3089A
:100120000C94C7080C94F6080C94E9080C943A0B4C
:100130000C94130A0C94970B0C94F1090C9471090C
:100140000C9466090C94BF080C94ED080C947F097C
:100150000C9493090C94B8080C94E3080C94DB08F5
:100160000C94AE080C94D5080C94B2080C94F108C9
:100170000C94CD0800000A0B02090C0D0E080703B1
:10018000040100000000000000000000000000006A
:10019000000000000000000000000000000000005F
:1001A000121110000000000000000000000000001C
:1001B00000000000000000000000010210202008E4
:1001C00008102040102040800201020108040201B2
:1001D0000102040810204080804020100804020121
:1001E000800402018040201008040201080402017A
:1001F0000102040810204080010204081020408001
:1002000005050505070508080808020202020A0A92
:1002100008080404040401010101010101010303B0
:10022000030303030303040707070C0C0C0C0C0C5B
:100230000C0C0202020206060606060606060B0B58
:100240000B0B0B0B0B0B00002200250028002B00D2
:100250002E003100340002010000050108010B01ED
:1002600000002100240027002A002D003000330068
:1002700001010000040107010A01AF01440B112430
:100280001FBECFEFD1E2DEBFCDBF00E00CBF12E05A
:10029000A0E0B2E0ECE3FBE100E00BBF02C007909E
:1002A0000D92AE3AB107D9F724E0AEEAB2E001C050
:1002B0001D92AE3BB207E1F712E0CEE7D2E000E0DC
:1002C00006C022970109FE010BBF0E94890DCA37A3
:1002D000D10780E00807A9F70E94880B0C949C0DB9
:1002E0000C94000040ED57E060E070E081EE93E098
:1002F0000E94930520E835E240E050E061E274E0BE
:1003000081EE93E00E94A60581EE93E00E949005A5
:1003100064E072E080911204909113040E94D50B66
:100320006AE070E080E090E00E94190841E060E03F
:1003300081EE93E00E9411068EEA92E00E94E106AF
:1003400026E040E855E260E070E081E294E00E943F
:10035000780A66E172E081E294E00C94F20BCF93AC
:10036000DF93CEEAD2E0CE010E94FD03CE010396D8
:100370000E94FD03CE0106960E94FD031E861D8687
:10038000188A1F861A8A198A1C8A1B8A1E8A1D8A45
:10039000188E1F8A699683E0C434D80721F7DF914D
:1003A000CF910895CF92DF92EF92FF920F931F9318
:1003B0000E94EA07672B682B692B41F40E94EA0729
:1003C000623071058105910508F478C081EE93E0F3
:1003D0000E9466056093440370934503809346032F
:1003E00090934703009148031091490320914A03D9
:1003F00030914B03601771078207930740F46093B5
:1004000048037093490380934A0390934B030091F0
:1004100048031091490320914A0330914B036B012B
:100420007C01C01AD10AE20AF30A970186010A3F49
:1004300011052105310508F441C06093480370930C
:10044000490380934A0390934B0381EE93E00E940B
:10045000900565E272E080911204909113040E946D
:10046000D50B6DE272E080911204909113040E940A
:10047000D50B0E94EA07AB01BC012AE030E0809175
:100480001204909113040E94BF0C6FE272E08091FD
:100490001204909113040E94D50B65E070E080E097
:1004A00090E00E9419086AE070E080E090E00E940D
:1004B000190861E081EE93E00E94D30581E294E0A7
:1004C0000E94660918161906C4F481E294E00E949D
:1004D0007F098C0168E372E081E294E00E94D50B11
:1004E0004AE050E0B80181E294E01F910F91FF9043
:1004F000EF90DF90CF900C94A70C1F910F91FF907D
:10050000EF90DF90CF900895CF92DF92EF92FF921D
:100510000F931F93CF93DF936C018B017A01EC0152
:10052000C35BDC4F888187FF04C0FB01118210820E
:1005300023C02CE02C9DC0012D9D900D11242881FD
:10054000AC01420F511D27FD5A9520914C0330E01C
:10055000421753078CF42881AC01420F511D27FD2F
:100560005A959A01FA01EE0FFF1FE20FF31FEF5A9F
:10057000FC4F208126FD19C088818F5F88838CE025
:100580008C9D90018D9D300D11248881A901480F0B
:10059000511D87FD5A9580914C0390E048175907EB
:1005A000B4F488818C303CF112C02881820F911DF7
:1005B00027FD9A95FC01EE0FFF1FE80FF91FEF5A78
:1005C000FC4F808160E08F730E943009D5CFF80125
:1005D00080819181049680349C4918F480E49CE9E0
:1005E00004C0F801808191810496F7019183808392
:1005F0008FEF888341C0F801808191814881B901E2
:10060000640F711D47FD7A95AB01FB01EE0FFF1FD3
:10061000E40FF51FEF5AFC4F41815281840F951F63
:10062000F701918380838881A901480F511D87FDBF
:100630005A95FA01EE0FFF1FE40FF51FEF5AFC4F1A
:10064000808186FF19C08881280F311D87FD3A956A
:10065000F901EE0FFF1FE20FF31FEF5AFC4F8081ED
:1006600061E08F73DF91CF911F910F91FF90EF9019
:10067000DF90CF900C943009DF91CF911F910F91B3
:10068000FF90EF90DF90CF9008951F920F920FB6DA
:100690000F9211240BB60F922F933F934F935F93BA
:1006A0006F937F938F939F93AF93BF93EF93FF933A
:1006B00048E850E064E870E081E090E00E94840245
:1006C000FF91EF91BF91AF919F918F917F916F912A
:1006D0005F914F913F912F910F900BBE0F900FBEE6
:1006E0000F901F9018951F920F920FB60F92112422
:1006F0000BB60F922F933F934F935F936F937F931C
:100700008F939F93AF93BF93EF93FF9348E950E08C
:1007100064E970E082E090E00E948402FF91EF9132
:10072000BF91AF919F918F917F916F915F914F9109
:100730003F912F910F900BBE0F900FBE0F901F9007
:1007400018951F920F920FB60F9211240BB60F92AD
:100750002F933F934F935F936F937F938F939F93C9
:10076000AF93BF93EF93FF9348EA50E064EA70E0E1
:1007700083E090E00E948402FF91EF91BF91AF91DE
:100780009F918F917F916F915F914F913F912F91A9
:100790000F900BBE0F900FBE0F901F9018951F92D9
:1007A0000F920FB60F9211240BB60F922F933F9317
:1007B0004F935F936F937F938F939F93AF93BF9369
:1007C000EF93FF9348E251E064E271E080E090E053
:1007D0000E948402FF91EF91BF91AF919F918F9101
:1007E0007F916F915F914F913F912F910F900BBE31
:1007F0000F900FBE0F901F90189520914C0320333F
:10080000A0F431E0320F30934C03FC012083822F9F
:1008100090E0FC01EE0FFF1FE80FF91FEF5AFC4FAD
:1008200088EB9BE09283818308952FEFFC01208366
:100830000895DF92EF92FF920F931F93CF93DF9370
:10084000EC01D62E7A0189018881803308F068C0D6
:1008500061E08D2D0E94F7088881A82FB0E0FD018E
:10086000EE0FFF1FEA0FFB1FEF5AFC4F2D2D2F73CA
:100870009081907C922B908360E272E06E197F09E8
:1008800077FF02C06D5F7F4F75956795759567958A
:10089000698340E659E0401B510B57FF02C04D5F92
:1008A0005F4F55954795559547954A836CE00E9453
:1008B0002B0D9CE0899FB001112420E030E0A901BC
:1008C000460F571FFA01EE0FFF1FE40FF51FEF5AF7
:1008D000FC4F908196FD18C02F5F3F4F2C303105A3
:1008E00071F790E08130910521F51092800082E04F
:1008F000809381001092850010928400B19A8091BB
:100900006F00826080936F00888190E0FC01EE0FA1
:10091000FF1FE80FF91FEF5AFC4F8081806480832E
:100920008881DF91CF911F910F91FF90EF90DF9021
:1009300008958230910569F41092900082E08093CE
:100940009100109295001092940088BB80937100E2
:10095000DBCF8330910569F41092A00082E0809390
:10096000A1001092A5001092A40089BB8093720090
:10097000CBCF892B49F61092200182E08093210190
:1009800010922501109224018ABB80937300BCCF82
:1009900020E639E040E252E00C941904FC01808129
:1009A000803370F5918128E830E0291B310997FDEB
:1009B0003395220F331F220F331F621773077CF00A
:1009C000928128E532E0291B310997FD3395220FEA
:1009D000331F220F331F621773070CF49B01225041
:1009E0003109220F331F4FB7F89490E0FC01EE0F4E
:1009F000FF1FE80FF91FEF5AFC4F328321834FBFCF
:100A000008954F925F926F927F92AF92BF92CF9272
:100A1000DF92EF92FF920F931F93CF93DF93EC013E
:100A2000603282E078070CF040C077FD06C0653B7D
:100A300071052CF064EB70E002C060E070E0898129
:100A400028E830E0281B310987FD3395220F331F3A
:100A5000220F331F5901CC24B7FCC094DC2C88270B
:100A600077FD8095982F2A8148E552E0421B510975
:100A700027FD5395440F551F440F551F2A01662427
:100A800057FC6094762C7F926F925F924F9214EB9A
:100A9000E12EF12C00E010E020E030E0A9010E94FE
:100AA000D30C0F900F900F900F90CE01DF91CF914C
:100AB0001F910F91FF90EF90DF90CF90BF90AF907C
:100AC0007F906F905F904F900C94CE040C94EA0747
:100AD0000F931F93CF93DF93EC01662359F00E948D
:100AE000EA0769837A838B839C83DF91CF911F917F
:100AF0000F9108950E94EA0709811A812B813C8198
:100B0000601B710B820B930B62337105810591059C
:100B100030F763E070E080E090E00E941908EACFCF
:100B200060E00C946805FC0113AA14AA15AA16AA81
:100B300011821282138214824115510561057105DB
:100B400021F0CB01BA010C9419080895FB01BA01F8
:100B5000A901DC01D296FC93EE93D19726E0CF0158
:100B60000C94780A1F93CF93DF93EC01162F65E462
:100B700072E089A99AA90E94D50B4AE050E0612F42
:100B800089A99AA90E94CC0C6CE472E089A99AA95F
:100B90000E94D50B62E370E080E090E0DF91CF919E
:100BA0001F910C9419081F93CF93DF93EC01162F1C
:100BB0008D81882389F189A99AA9DC01ED91FC91A5
:100BC0000480F581E02D1995892BA9F307C02637FC
:100BD000310519F12835310509F41D8289A99AA931
:100BE000DC01ED91FC910480F581E02D199518163A
:100BF000190694F489A99AA9DC01ED91FC9106806B
:100C0000F781E02D19959C01332723363105F9F63C
:100C1000612FCE010E94B20583E6DF91CF911F9133
:100C200008950F931F93CF93DF931F92CDB7DEB735
:100C30008C01662349F081E0F801858360E0C801FA
:100C400049830E94D3054981F80145830F90DF91C4
:100C5000CF911F910F9108952F923F924F925F92E3
:100C60006F927F928F929F92AF92BF92CF92DF92BC
:100C7000EF92FF920F931F93CF93DF93CDB7DEB721
:100C80003C012A0119010E94C804B201C301039664
:100C90000E94C804B101C30106960E94C804F30172
:100CA00012870187F486E386D48AC38AB68AA58A26
:100CB000908E878A82E390E096878587928B818BDE
:100CC000F1E0EF16F10449F082E0E816F10449F092
:100CD000EF2861F48CEE9FEF06C0F301108A1786AF
:100CE00005C084E190E0F301908B8787DF91CF917D
:100CF0001F910F91FF90EF90DF90CF90BF90AF903A
:100D00009F908F907F906F905F904F903F902F902B
:100D10000895CF93DF93EC0189859A852D853E85D3
:100D2000829FB001839F700D929F700D1124665AAF
:100D30007F4F4B895C89849F9001859F300D949FE4
:100D4000300D1124620F731FCE010E9401058985A9
:100D50009A852F853889829FB001839F700D929F5D
:100D6000700D1124665A7F4F4D895E89849F9001D2
:100D7000859F300D949F300D1124620F731FCE019B
:100D800003960E94010589859A8529893A89829F5F
:100D9000B001839F700D929F700D1124665A7F4F92
:100DA0004F89588D849F9001859F300D949F300D01
:100DB0001124620F731FCE010696DF91CF910C9420
:100DC00001052F923F924F925F926F927F928F9286
:100DD0009F92AF92BF92CF92DF92EF92FF920F93CA
:100DE0001F93CF93DF9300D000D0CDB7DEB79E83A3
:100DF0008D83812C912CA12CB12CC12CD12C22E0E3
:100E0000E22EF12C0FEF1FEF28E130E046E150E039
:100E100067E170E00E942C064D805E8089E1480EFB
:100E2000511C01E010E02BE130E049E150E06AE1C3
:100E300070E0C2010E942C066D807E8092E3690EF4
:100E4000711C35E0832E912CEE24E394F12C0FEFEE
:100E50001FEF2EE130E04CE150E06DE170E0C301A6
:100E60000E942C062D803E80EBE42E0E311C812C3E
:100E7000912C01E010E021E230E04FE150E060E22F
:100E800070E0C1010E942C068D819E818C599F4F7C
:100E90009A83898356EF852E99249A9465E0C62E0D
:100EA000D12CE12CF12C0FEF1FEF24E230E042E2D5
:100EB00050E063E270E00E942C06ED81FE81E35871
:100EC000FF4FFC83EB837AE0872E912CC12CD12C31
:100ED00001E010E027E230E045E250E066E270E039
:100EE000CF010E942C068D819E810E948906C2013D
:100EF0000E948906C3010E948906C1010E948906D9
:100F000089819A810E9489068B819C8126960FB6E1
:100F1000F894DEBF0FBECDBFDF91CF911F910F912F
:100F2000FF90EF90DF90CF90BF90AF909F908F9009
:100F30007F906F905F904F903F902F900C94890618
:100F40001F920F920FB60F9211242F933F938F93FE
:100F50009F93AF93BF938091190490911A04A0912D
:100F60001B04B0911C043091180423E0230F2D378B
:100F700020F40196A11DB11D05C026E8230F02969D
:100F8000A11DB11D209318048093190490931A0495
:100F9000A0931B04B0931C0480911D0490911E0427
:100FA000A0911F04B09120040196A11DB11D809352
:100FB0001D0490931E04A0931F04B0932004BF91BE
:100FC000AF919F918F913F912F910F900FBE0F90F6
:100FD0001F9018952FB7F8946091190470911A0416
:100FE00080911B0490911C042FBF08953FB7F89483
:100FF00080911D0490911E04A0911F04B0912004C3
:1010000026B5A89B05C02F3F19F00196A11DB11D63
:101010003FBF6627782F892F9A2F620F711D811D80
:10102000911D42E0660F771F881F991F4A95D1F7DF
:101030000895CF92DF92EF92FF92CF93DF936B01EF
:101040007C010E94F607EB01C114D104E104F10414
:1010500089F00E941A0D0E94F6076C1B7D0B683EFA
:10106000734090F381E0C81AD108E108F108C85133
:10107000DC4FEACFDF91CF91FF90EF90DF90CF90E0
:101080000895789484B5826084BD84B5816084BD00
:1010900085B5826085BD85B5816085BDEEE6F0E0F1
:1010A000808181608083E1E8F0E01082808182604D
:1010B0008083808181608083E0E8F0E080818160CE
:1010C0008083E1EBF0E0808184608083E0EBF0E0FE
:1010D000808181608083E1E9F0E0808182608083AB
:1010E000808181608083E0E9F0E08081816080839D
:1010F000E1EAF0E08081826080838081816080838A
:10110000E0EAF0E0808181608083E1E2F1E08081CB
:1011100082608083808181608083E0E2F1E0808171
:1011200081608083EAE7F0E0808184608083808151
:1011300082608083808181608083808180688083F9
:101140001092C100089590E0FC013197E231F10561
:1011500008F04CC0EE58FF4F0C94780D8091800041
:101160008F7703C0809180008F7D809380000895E9
:1011700080918000877FF9CF84B58F7702C084B5D6
:101180008F7D84BD08958091B0008F7703C08091DA
:10119000B0008F7D8093B0000895809190008F778C
:1011A00007C0809190008F7D03C080919000877F61
:1011B0008093900008958091A0008F7707C0809160
:1011C000A0008F7D03C08091A000877F8093A00046
:1011D0000895809120018F7707C0809120018F7D35
:1011E00003C080912001877F809320010895CF93D1
:1011F000DF9390E0FC01E654FE4F2491FC01E050A7
:10120000FE4F8491882349F190E0880F991FFC01DB
:10121000E05AFD4FA591B4918A5B9D4FFC01C591A9
:10122000D4919FB7611108C0F8948C9120958223C6
:101230008C93888182230AC0623051F4F8948C9197
:10124000322F309583238C938881822B888304C02E
:10125000F8948C91822B8C939FBFDF91CF9108954E
:101260000F931F93CF93DF931F92CDB7DEB7282F35
:1012700030E0F901EC58FE4F8491F901E654FE4F3D
:101280001491F901E050FE4F04910023C9F0882326
:1012900021F069830E94A3086981E02FF0E0EE0F3E
:1012A000FF1FEA5BFD4FA591B4919FB7F8948C9115
:1012B000611103C01095812301C0812B8C939FBFC6
:1012C0000F90DF91CF911F910F910895FC01818DB7
:1012D000228D90E0805C9F4F821B91098F7399272C
:1012E0000895FC01918D828D981731F0828DE80F61
:1012F000F11D858D90E008958FEF9FEF0895FC011B
:10130000918D828D981761F0828DDF01A80FB11D3C
:101310005D968C91928D9F5F9F73928F90E0089560
:101320008FEF9FEF08958AE39BE0892B41F080E0E7
:1013300090E0892B21F00E943A0B811125C080E0BA
:1013400090E0892B41F080E090E0892B21F00E9411
:10135000000081111CC080E090E0892B41F080E00A
:1013600090E0892B21F00E940000811113C080E0E1
:1013700090E0892BA1F080E090E0892B81F00E9421
:10138000000081110AC008950E940000D8CF0E9479
:101390000000E1CF0E940000EACF0C940000089505
:1013A000FC01848DDF01A80FB11DA35ABF4F2C9102
:1013B000848D90E001968F739927848FA689B789D1
:1013C0002C93A089B1898C9180648C93938D848DAA
:1013D000981306C00288F389E02D80818F7D808379
:1013E0000895CF93DF93EC01888D8823C9F0EA89B3
:1013F000FB89808185FD05C0A889B9898C9186FD0E
:101400000FC00FB607FCF5CF808185FFF2CFA8890A
:10141000B9898C9185FFEDCFCE010E94D009E7CF2D
:10142000DF91CF910895CF92DF92FF920F931F9398
:10143000CF93DF931F92CDB7DEB76C01DC015B96D3
:101440009C915B975C968C915C97981307C0509623
:10145000ED91FC915197808185FD32C0F601038D9D
:1014600010E00F5F1F4F0F731127F02EF601848DD0
:10147000F81211C00FB607FCF9CFD6015096ED91C6
:10148000FC915197808185FFF1CFC60169830E944D
:10149000D0096981EBCF838DE80FF11DE35AFF4F2F
:1014A0006083D6015B960C935B975296ED91FC910D
:1014B000539780818062808381E058968C930DC021
:1014C000D6015696ED91FC91579760835096ED9119
:1014D000FC91519780818064808381E090E00F903F
:1014E000DF91CF911F910F91FF90DF90CF900895E2
:1014F000BF92CF92DF92EF92FF92CF93DF93EC01F6
:101500006A017B01B22EE889F98982E08083411566
:1015100081EE580761057105A1F060E079E08DE387
:1015200090E0A70196010E94370D21503109410931
:1015300051095695479537952795211580E138072C
:1015400098F0E889F989108260E874E88EE190E00B
:10155000A70196010E94370D215031094109510917
:101560005695479537952795EC85FD853083EE8513
:10157000FF852083188EEC89FD89B082EA89FB897A
:10158000808180618083EA89FB8980818860808393
:10159000EA89FB89808180688083EA89FB89808170
:1015A0008F7D8083DF91CF91FF90EF90DF90CF9080
:1015B000BF9008951F920F920FB60F9211240BB691
:1015C0000F922F938F939F93EF93FF93E0913104AA
:1015D000F09132048081E0913704F091380482FD6B
:1015E00012C0908180913A048F5F8F7320913B04E9
:1015F000821751F0E0913A04F0E0EF5DFB4F958FD8
:1016000080933A0401C08081FF91EF919F918F9167
:101610002F910F900BBE0F900FBE0F901F9018953B
:101620001F920F920FB60F9211240BB60F922F93A9
:101630003F934F935F936F937F938F939F93AF935A
:10164000BF93EF93FF9381E294E00E94D009FF9152
:10165000EF91BF91AF919F918F917F916F915F912A
:101660004F913F912F910F900BBE0F900FBE0F9097
:101670001F90189581E294E00E94660921E0892B71
:1016800009F420E0822F089510922404109223047C
:1016900088EE93E0A0E0B0E08093250490932604C8
:1016A000A0932704B093280481EA92E09093220447
:1016B0008093210485EC90E090932E0480932D0478
:1016C00084EC90E09093300480932F0480EC90E0C1
:1016D000909332048093310481EC90E09093340431
:1016E0008093330482EC90E0909336048093350429
:1016F00086EC90E0909338048093370410923A047B
:1017000010923B0410923C0410923D0408950895F9
:101710000E9441080E94870B0E947201C3E9D9E030
:101720000E94D2012097E1F30E949309F9CFCF9252
:10173000DF92EF92FF920F931F93CF93DF936C0191
:101740007A01EB01E60EF71E00E010E0CE15DF0592
:1017500061F06991D601ED91FC910190F081E02D4D
:10176000C6011995080F191FF1CFC801DF91CF915C
:101770001F910F91FF90EF90DF90CF90089561152A
:10178000710581F0DB010D900020E9F7AD014150BA
:101790005109461B570BDC01ED91FC910280F3814E
:1017A000E02D199480E090E008950C94BF0BDC01CB
:1017B000ED91FC910190F081E02D19940F931F930E
:1017C000CF93DF93EC016DE00E94D70B8C016AE0B0
:1017D000CE010E94D70B800F911FDF91CF911F91F7
:1017E0000F9108950F931F93CF93DF93EC010E9405
:1017F000BF0B8C01CE010E94DE0B800F911FDF9189
:10180000CF911F910F9108958F929F92AF92BF92A7
:10181000CF92DF92EF92FF920F931F93CF93DF93BC
:10182000CDB7DEB7A1970FB6F894DEBF0FBECDBF20
:101830007C01C42EE52FCB01D22E19A221E02D155B
:1018400010F02AE0D22E8E010F5D1F4F8D2C912CAF
:10185000A12CB12C6C2D7E2FA50194010E94370D77
:101860008C2DD29E80191124015011098A3014F454
:10187000805D01C0895CF801808321153105410537
:10188000510521F0C22EE32FCA01E4CFB801C701F0
:101890000E94BF0BA1960FB6F894DEBF0FBECDBF5E
:1018A000DF91CF911F910F91FF90EF90DF90CF903C
:1018B000BF90AF909F908F900895CF92DF92EF925C
:1018C000FF920F931F93CF93DF93EC016A017B018B
:1018D0002115310579F4E881F9810190F081E02D3D
:1018E000642FDF91CF911F910F91FF90EF90DF90C8
:1018F000CF9019942A303105E9F477FF1AC06DE2D0
:101900000E94D70B8C0144275527BA014C195D0959
:101910006E097F092AE0CE010E94040C800F911FFE
:10192000DF91CF911F910F91FF90EF90DF90CF90BB
:1019300008952AE0B701A601CE01DF91CF911F9152
:101940000F91FF90EF90DF90CF900C94040C0F93C9
:101950001F93CF93DF93EC019A01AB01662757FDEC
:101960006095762F0E945D0C8C01CE010E94DE0BEB
:10197000800F911FDF91CF911F910F910895211535
:10198000310541F4DC01ED91FC910190F081E02DF5
:10199000642F19940C94040C9A01462F50E060E0D7
:1019A00070E00C94BF0C4F925F926F927F92AF9257
:1019B000BF92CF92DF92EF92FF920F931F93CF933C
:1019C000DF93CDB7DEB729013A01621B730B840B9D
:1019D000950B2A893B894C895D892A193B094C0959
:1019E0005D092A8B3B8B4C8B5D8B9B01AC016A891B
:1019F0007B898C899D890E941B0DE418F5080609D6
:101A00001709A80197010E94590D2A0D3B1D4C1D75
:101A10005D1DCA01B901DF91CF911F910F91FF9018
:101A2000EF90DF90CF90BF90AF907F906F905F90DE
:101A30004F9008950895DB018F939F930E947E0D30
:101A4000BF91AF91A29F800D911DA39F900DB29F5A
:101A5000900D11240895991B79E004C0991F9617E1
:101A600008F0961B881F7A95C9F780950895A1E222
:101A70001A2EAA1BBB1BFD010DC0AA1FBB1FEE1F08
:101A8000FF1FA217B307E407F50720F0A21BB30B53
:101A9000E40BF50B661F771F881F991F1A9469F7CF
:101AA00060957095809590959B01AC01BD01CF012B
:101AB0000895052E97FB1EF400940E94700D57FDAB
:101AC00007D00E94370D07FC03D04EF40C94700D24
:101AD00050954095309521953F4F4F4F5F4F08955A
:101AE00090958095709561957F4F8F4F9F4F08958A
:101AF000EE0FFF1F0590F491E02D19940E948D0DBB
:101B0000A59F900DB49F900DA49F800D911D112451
:101B100008950790F691E02D1994A29FB001B39F0C
:101B2000C001A39F700D811D1124911DB29F700DE6
:0C1B3000811D1124911D0895F894FFCF31
:101B3C0001000000564D4450565F317C315F564DCC
:101B4C004450560D0A0048656C6C6F20436F6D70E5
:101B5C007574657200564D4450455F31007C005FD2
:101B6C00564D4450450D0A004920726563656976EF
:101B7C0065643A2000564D4450435F005F564D4417
:101B8C0050430D0A004572726F723A2041747465AD
:101B9C006D707420746F20736574206120726561A0
:101BAC00642D6F6E6C79207661726961626C652050
:101BBC006F7220646174612074797065206E6F742B
:101BCC0020737570706F727465640D0A00000000EC
:0E1BDC0000130A970B66097F097109F10900D1
:00000001FF
