:100000000C94DE000C9406010C9406010C9406017D
:100010000C9406010C9406010C9406010C94060144
:100020000C9406010C9406010C94A20A0C94340959
:100030000C9406010C9406010C9406010C94060124
:100040000C9406010C94C9010C9406010C94060151
:100050000C9406010C9406010C9406010C94C50343
:100060000C9406010C9406010C9406010C940601F4
:100070000C9406010C9406010C9406010C940601E4
:100080000C9406010C9406010C9406010C940601D4
:100090000C9406010C9406010C9406010C940601C4
:1000A0000C9406010C9406010C940601E604E90484
:1000B000D804DC04E2040A050A050A05ED04F1048B
:1000C000F504FB04FF040A05050500000002000911
:1000D0000F0000030401000C0000000000000000FD
:1000E0000000000000000000000408020110408031
:1000F000401020408040800802040180402010020F
:10010000011080102040402004040404040304056E
:1001100002020202040302020202060606060606A4
:100120000404020202040400000000250028002B41
:10013000002E003100080B00020202010009040039
:100140000001020200000524001001052401010144
:10015000042402060524060001070581031000405F
:1001600009040100020A0000000705020240000025
:100170000705830240000012010002EF0201404126
:10018000234180000101020301120100020000006E
:1001900040412341800001010203014172647569FD
:1001A0006E6F204C4C430041726475696E6F20592C
:1001B000756E000403090400A003470611241FBE46
:1001C000CFEFDAE0DEBFCDBF11E0A0E0B1E0E0E1CB
:1001D000F8E102C005900D92A43AB107D9F722E0E8
:1001E000A4EAB1E001C01D92A339B207E1F711E022
:1001F000CCEBD1E004C02297FE010E94020CC83B68
:10020000D107C9F70E9465060C94060C0C940000F7
:1002100040ED57E060E070E082ED91E00E94130352
:1002200020E032EC41E050E06BE272E082ED91E0E0
:100230000E94CC0282ED91E00E94C90267E171E068
:1002400080910302909104020E948E066AE070E0A1
:1002500080E090E00E943E0441E060E082ED91E0A9
:100260000C948503CF92DF92EF92FF920F931F932E
:100270000E940F04672B682B692B41F40E940F0426
:10028000623071058105910508F47CC00E940F045D
:100290006093A4017093A5018093A6019093A70198
:1002A0000091A8011091A9012091AA013091AB0100
:1002B000601771078207930740F46093A801709359
:1002C000A9018093AA019093AB010091A80110911C
:1002D000A9012091AA013091AB016B017C01C01AE8
:1002E000D10AE20AF30A970186010A3F11052105A6
:1002F000310508F447C06093A8017093A901809369
:10030000AA019093AB0182ED91E00E94C90269E2DB
:1003100071E080910302909104020E948E0661E3D5
:1003200071E080910302909104020E948E060E9467
:100330000F04AB01BC012AE030E0809103029091F0
:1003400004020E94DF0663E371E080910302909152
:1003500004020E948E0665E070E080E090E00E945A
:100360003E046AE070E080E090E00E943E0461E0BC
:1003700082ED91E01F910F91FF90EF90DF90CF9071
:100380000C9447031F910F91FF90EF90DF90CF9057
:1003900008951F920F920FB60F9211242F933F933F
:1003A0004F935F936F937F938F939F93AF93BF937D
:1003B000EF93FF938091AD0187FF05C010928500F8
:1003C000109284001AC02091AD01332727FD30958B
:1003D0008091AC0190E0281739077CF48091AD0141
:1003E000992787FD9095FC01EE0FFF1FE80FF91F7D
:1003F000E255FE4F808186FD15C08091AD018F5F73
:100400008093AD012091AD01332727FD3095809178
:10041000AC0190E028173907BCF48091AD018C3015
:100420005CF112C08091AD01992787FD9095FC0188
:10043000EE0FFF1FE80FF91FE255FE4F808160E0CD
:100440008F730E940B05D9CF809184009091850015
:10045000049680349C4918F480E49CE905C080919E
:100460008400909185000496909389008093880081
:100470008FEF8093AD0138C02091840030918500CA
:100480008091AD01992787FD9095FC01EE0FFF1F2C
:10049000E80FF91FE255FE4F81819281820F931F71
:1004A00090938900809388008091AD01992787FD02
:1004B0009095FC01EE0FFF1FE80FF91FE255FE4F6C
:1004C000808186FF11C08091AD01992787FD9095AD
:1004D000FC01EE0FFF1FE80FF91FE255FE4F808170
:1004E00061E08F730E940B05FF91EF91BF91AF9177
:1004F0009F918F917F916F915F914F913F912F913C
:100500000F900FBE0F901F9018952091AC012C30CA
:10051000A0F431E0320F3093AC01FC012083822F34
:1005200090E0FC01EE0FFF1FE80FF91FE255FE4FB0
:1005300088EB9BE09283818308952FEFFC01208359
:1005400008950F931F93CF93DF93EC01662359F027
:100550000E940F0469837A838B839C83DF91CF9100
:100560001F910F9108950E940F0409811A812B8118
:100570003C81601B710B820B930B64367105810506
:10058000910530F763E070E080E090E00E943E0467
:10059000EACF60E00C94A102CF92DF92EF92FF923B
:1005A0000F931F93CF93DF9300D000D0CDB7DEB76A
:1005B0008C017B01FC0172AB61AB8BE1C82ED12CAD
:1005C000C70129833A834B835C830E9438062981C3
:1005D0003A814B815C81811113C0F1E0CF1AD108BF
:1005E00079F064E670E080E090E029833A834B8301
:1005F0005C830E943E045C814B813A812981E0CF7B
:10060000BA01A901F80181A992A90F900F900F904A
:100610000F90DF91CF911F910F91FF90EF90DF909E
:10062000CF900C943206FC0113AA14AA15AA16AA9C
:1006300011821282138214824115510561057105E0
:1006400021F0CB01BA010C943E0408951F93CF937F
:10065000DF93EC01162F6CE371E089A99AA90E943F
:100660008E064AE050E0612F89A99AA90E94EC0603
:1006700063E471E089A99AA90E948E0662E370E0A2
:1006800080E090E0DF91CF911F910C943E041F9386
:10069000CF93DF93EC01162F8D81882389F189A9EF
:1006A0009AA9DC01ED91FC910480F581E02D09957A
:1006B000892BA9F307C02637310519F128353105F3
:1006C00009F41D8289A99AA9DC01ED91FC910480AD
:1006D000F581E02D09951816190694F489A99AA9AF
:1006E000DC01ED91FC910680F781E02D09959C01DC
:1006F000332723363105F9F6612FCE010E942603F8
:1007000083E6DF91CF911F9108950F931F93CF93AD
:10071000DF931F92CDB7DEB78C01662349F081E0ED
:10072000F801858360E0C80149830E94470349813D
:10073000F80145830F90DF91CF911F910F9108959C
:1007400089E092E00E9485028CE092E00E9485029E
:100750008FE092E00E94850210921702109216021A
:10076000109219021092180210921B0210921A0293
:1007700010921D0210921C0210921F0210921E0273
:10078000109221021092200208951F920F920FB62C
:100790000F9211242F933F938F939F93AF93BF9307
:1007A0008091230290912402A0912502B09126020B
:1007B0003091220223E0230F2D3720F40196A11D52
:1007C000B11D05C026E8230F0296A11DB11D20937F
:1007D00022028093230290932402A0932502B093D7
:1007E00026028091270290912802A0912902B091BF
:1007F0002A020196A11DB11D809327029093280221
:10080000A0932902B0932A02BF91AF919F918F913B
:100810003F912F910F900FBE0F901F9018952FB7FB
:10082000F8946091230270912402809125029091A6
:1008300026022FBF08953FB7F89480912702909128
:100840002802A0912902B0912A0226B5A89B05C0D2
:100850002F3F19F00196A11DB11D3FBF6627782FCC
:10086000892F9A2F620F711D811D911D42E0660F25
:10087000771F881F991F4A95D1F708958F929F92ED
:10088000AF92BF92CF92DF92EF92FF926B017C0109
:100890000E941B044B015C01C114D104E104F1046A
:1008A000F1F00E94420B0E941B04681979098A0921
:1008B0009B09683E73408105910570F321E0C21ADF
:1008C000D108E108F10888EE880E83E0981EA11C8B
:1008D000B11CC114D104E104F10429F7DDCFFF906C
:1008E000EF90DF90CF90BF90AF909F908F90089542
:1008F000789484B5826084BD84B5816084BD85B5FB
:10090000826085BD85B5816085BDEEE6F0E08081C1
:1009100081608083E1E8F0E01082808182608083E2
:10092000808181608083E0E8F0E080818160808365
:10093000E1E9F0E080818260808380818160808352
:10094000E0E9F0E0808181608083E1ECF0E080818B
:1009500084608083808182608083808181608083E5
:10096000E3ECF0E0808181608083E0ECF0E0808166
:1009700082608083E2ECF0E0808181608083EAE73E
:10098000F0E08081846080838081826080838081C8
:1009900081608083808180688083089590E0FC017D
:1009A0003197EF30F105B0F5EA5AFF4F0C94000C87
:1009B000809180008F7703C0809180008F7D80932D
:1009C0008000089580918000877FF9CF84B58F776C
:1009D00002C084B58F7D84BD0895809190008F778B
:1009E00007C0809190008F7D03C080919000877F29
:1009F0008093900008958091C0008F7703C080910C
:100A0000C0008F7D8093C00008958091C200877FD1
:100A10008093C20008950F931F93CF93DF931F928B
:100A2000CDB7DEB7282F30E0F901E653FF4F8491B0
:100A3000F901E751FF4F1491F901E85FFE4F04916E
:100A40000023C9F0882321F069830E94CE046981C4
:100A5000E02FF0E0EE0FFF1FE95DFE4FA591B4918E
:100A60009FB7F8948C91611103C01095812301C048
:100A7000812B8C939FBF0F90DF91CF911F910F918E
:100A80000895CF93DF931F92CDB7DEB76983DC0162
:100A9000ED91FC910280F381E02D41E050E0BE0138
:100AA0006F5F7F4F09950F90DF91CF910895CF939E
:100AB000DF93EC018C859D8597FF05C082E00E9445
:100AC00004089D878C878C859D85DF91CF91089543
:100AD00083E00C94980AFC018485958597FD06C0F7
:100AE00082E00E94AC0790E00196089582E00E94A7
:100AF000AC0790E00895FC018485958597FD05C0BD
:100B00002FEF3FEF35872487089582E00C94040887
:100B1000CF93DF93EC0180910F01882331F083E0C4
:100B20000E9435081816190634F081E090E09B8386
:100B30008A8380E090E0DF91CF910895FC012081CD
:100B40002E5F208342E450E065E371E080E80C947E
:100B5000D008FC0121818081813A59F4213209F0C9
:100B60004BC047E050E068E071E080E00E94D008B0
:100B70005EC0813209F040C0233289F4838190E065
:100B8000982F88273281832BA0E0B0E08093040166
:100B900090930501A0930601B09307010FC0203286
:100BA00039F467E070E088E091E00E94010909C033
:100BB000223221F4828180930F0103C02D7F2032E5
:100BC000B1F580917B02811103C0E0E0F8E002C042
:100BD000EEEFFAE08091080190910901A0910A01DD
:100BE000B0910B01803B9440A105B10511F58091B6
:100BF0000F0180FF03C01DC080E00895EE3F2AE092
:100C0000F20731F0808191819093FF0A8093FE0A70
:100C100087E797E7918380832BE088E190E00FB628
:100C2000F894A895809360000FBE2093600081E047
:100C3000089588E10FB6F8948093600010926000E8
:100C40000FBEA895EE3F8AE0F80739F08091FE0AC2
:100C50009091FF0A91838083EACF1092FF0A10924D
:100C6000FE0AE5CF2FEF3FEFFC013587248708957B
:100C7000CF93C0910F016AE070E080E090E00E94A5
:100C80003E0481E0C11101C080E0CF91089510922F
:100C90002E0210922D0288EE93E0A0E0B0E0809347
:100CA0002F0290933002A0933102B093320288E970
:100CB00091E090932C0280932B028FEF9FEF909303
:100CC000380280933702089508950E9478040E94A4
:100CD00064068CE792E00E94250B0E940801C0E0A8
:100CE000D0E00E9432012097E1F30E940000F9CF8A
:100CF0006115710581F0DB010D900020E9F7AD0170
:100D000041505109461B570BDC01ED91FC910280CB
:100D1000F381E02D099480E090E008950C9478062A
:100D20008F929F92AF92BF92DF92EF92FF920F93BA
:100D30001F93CF93DF93CDB7DEB7A1970FB6F8948B
:100D4000DEBF0FBECDBF7C01F42FD52ECB0119A283
:100D5000223008F42AE08E010F5D1F4F822E912C65
:100D6000A12CB12C6F2F7D2DA50194010E94DE0BCB
:100D7000F22FD32ECA01015011096A3014F4E0E3B6
:100D800001C0E7E3E60FD801EC93232B242B252B9E
:100D900049F7B801C7010E947806A1960FB6F894EA
:100DA000DEBF0FBECDBFDF91CF911F910F91FF909E
:100DB000EF90DF90BF90AF909F908F900895211596
:100DC000310541F4DC01ED91FC910190F081E02DC1
:100DD000642F09940C9490069A01462F50E060E02D
:100DE00070E00C94DF06615030F02091F100FC01BE
:100DF00020830196F8CF289884E680938502089591
:100E0000409180025091810220917E0230917F02B8
:100E100042175307B4F49091E8009570E1F3909174
:100E2000E80092FD19C08093F100809180029091BA
:100E3000810201968F739927892B19F48EEF809385
:100E4000E800809180029091810201969093810246
:100E50008093800281E0089580E00895CF92DF9230
:100E6000EF92FF920F931F93CF93DF931F92CDB713
:100E7000DEB7082F162FF42E862F880F8E5F9983EA
:100E80000E94000783E00E940007E02EC02E998197
:100E9000D92E8C2D8E19811798F4F601F7FE02C019
:100EA000849101C080810E940007082F80E00E9489
:100EB00000078023FFEFCF1ADF0A8111EACF01C0BC
:100EC00081E00F90DF91CF911F910F91FF90EF90F4
:100ED000DF90CF9008958091D70081608093D700F4
:100EE00080EA8093D80089B5806189BD89B5826028
:100EF00089BD09B400FEFDCF61E070E080E090E0C4
:100F00000E943E048091D8008F7C80618093D8003D
:100F10008091E000807F8093E0000895CF93DF937D
:100F20001F92CDB7DEB71982CE0101960E949E05B1
:100F30000E94CA0BBE016F5F7F4F0E94430B8981E5
:100F40000F90DF91CF9108952FB7FC012083F89483
:100F500067706093E9000895CF93DF931F92CDB738
:100F6000DEB7682FCE0101960E94A4078091F2009F
:100F700099819FBF0F90DF91CF910895FF920F93BA
:100F80001F93CF93DF9300D0CDB7DEB7F62E8A0143
:100F900090918402992311F057FF03C08FEF9FEFC8
:100FA0002BC0682FCE0101967A830E94A4078091FE
:100FB000F20090E0A8017A81801791070CF4AC014F
:100FC000EF2DF72FF40E84E6FE1639F02898809363
:100FD00085029091F1009193F7CF4115510521F0D1
:100FE0008091F200882321F089818FBFCA0104C05B
:100FF0008BE68093E800F8CF0F900F90DF91CF91B0
:101000001F910F91FF900895CF93DF931F92CDB75B
:10101000DEB741E050E0BE016F5F7F4F0E94BE0728
:10102000019719F4898190E002C08FEF9FEF0F9034
:10103000DF91CF910895CF93DF931F92CDB7DEB7A5
:10104000682FCE0101960E94A4079091E800892F95
:10105000807295FF04C09091F20080E4891B998111
:101060009FBF0F90DF91CF9108956F927F928F92E3
:101070009F92AF92BF92CF92DF92EF92FF920F9327
:101080001F93CF93DF931F92CDB7DEB7782E7B01EE
:10109000C42EB52E80918402882369F0042F152F69
:1010A0008AEFD82E872D8072982E9AE3A92E872D4D
:1010B0008074882E11C08FEF9FEF57C0872D0E943C
:1010C0001B08682E81110CC0DA94A9F361E070E06E
:1010D00080E090E00E943E040115110579F73BC0C5
:1010E000282F30E0021713070CF4602E672DCE0175
:1010F00001960E94A4078091E80085FF29C0262D53
:1011000030E0021B130B992039F06A948FEF6816B8
:10111000B1F01092F100F9CFF701862D77FE07C0EC
:10112000815058F094919093F1003196F9CF81500D
:1011300020F091919093F100FACFE20EF31E80918E
:10114000E80085FF0FC00115110511F481100AC0D8
:1011500089818FBFC1CF5D9884E6809386028C2DF4
:101160009B2D03C0A092E800F3CF0F90DF91CF91A9
:101170001F910F91FF90EF90DF90CF90BF90AF90B5
:101180009F908F907F906F9008951092E900109239
:1011900081021092800290937F0280937E020895D4
:1011A000CF92DF92FF920F931F93CF93DF9300D0E4
:1011B000CDB7DEB7F82E8A016B0101151105B1F02C
:1011C000F601F7FE02C0849101C0808149835A83F1
:1011D0000E94000701501109FFEFCF1ADF0A498171
:1011E0005A818111EACF8FEF9FEF01C0CA010F90A2
:1011F0000F90DF91CF911F910F91FF90DF90CF90D3
:101200000895BF92CF92DF92EF92FF920F931F93B8
:10121000CF93DF936C018B01EB013BEFB32E209753
:10122000C1F07E01C134D1051CF020E4E22EF12C86
:101230008091E80082FFFCCFC8018C1B9D0B6E2DB6
:101240008C0D9D1D0E94F306B092E800CE19DF09B7
:10125000E6CFC801DF91CF911F910F91FF90EF90E2
:10126000DF90CF90BF9008951F920F920FB60F920C
:101270001124DF92EF92FF920F931F932F933F93CE
:101280004F935F936F937F938F939F93AF93BF938E
:10129000EF93FF93CF93DF93CDB7DEB76C97DEBFAD
:1012A000CDBF1092E9008091E80083FF23C168E080
:1012B000CE0145960E94F30682EF8093E8003D89B7
:1012C00037FF05C08091E80080FFFCCF03C08EEFA0
:1012D0008093E800832F807609F0F0C02E894F8933
:1012E000D88C21110CC0303829F48091830280936E
:1012F000F10002C01092F1001092F100F4C0842FAE
:1013000090E09D29213049F43111EDC0019709F099
:10131000EAC0809183028D7F0AC0233059F43111D5
:10132000E2C0019709F0DFC0809183028260809360
:101330008302D9C0253041F48091E80080FFFCCFC2
:1013400040684093E300CFC0263009F08DC0EB8C9D
:10135000FC8C22E0D2122CC080E090E00E94C508F4
:101360000E948E0799E08E010F5F1F4FF801292F11
:1013700011922A95E9F79983DA8291E09E8390EAA7
:1013800098879AEF99872091800230918102275F98
:101390003F4F3C832B838D83C7010E94C50849E0E2
:1013A00050E0B80180E00E94D0080E948E079BC0E8
:1013B000C7010E94C5080E94CA0BBE016B5E7F4F29
:1013C0000E946C0B009719F00CF08DC090C081E06A
:1013D000D8120EC08B8D9C8D089719F481E08093F4
:1013E0007D0280917D0281112FC069E871E031C0DA
:1013F000E3E0DE127CC08F89882349F1823029F432
:1014000040E86BE087EA91E01CC0813029F440E8B5
:101410006BE08BE991E015C0833009F068C00E9451
:10142000CA0B8E010F5F1F4FB8010E948B0BF80192
:1014300001900020E9F73197E01BF10B40E06E2F9F
:10144000C8010E942E074DC067E771E002C063EB40
:1014500071E06115710509F44AC0FB01449150E047
:1014600080E80E94D0083FC0273009F440C02830EF
:1014700021F481E08093F10036C02930A1F533706A
:10148000B1F5E1E1F1E081E021E036E390819923DB
:1014900061F08093E9002093EB0091919093EC0030
:1014A0003093ED008F5F873089F78EE78093EA00F5
:1014B0001092EA008F898093840215C08B8D9C8DD9
:1014C0000E94C508898D811105C0CE0145960E94F4
:1014D000A90507C00E94CA0BBE016B5E7F4F0E9428
:1014E000AA0B882321F08EEF8093E80003C081E2ED
:1014F0008093EB006C960FB6F894DEBF0FBECDBFA5
:10150000DF91CF91FF91EF91BF91AF919F918F911B
:101510007F916F915F914F913F912F911F910F910B
:10152000FF90EF90DF900F900FBE0F901F901895D7
:101530008093E9008091F200882319F08AE3809378
:10154000E80008951F920F920FB60F9211242F9367
:101550003F934F935F936F937F938F939F93AF933B
:10156000BF93CF93EF93FF93C091E1008091E1008F
:10157000837F8093E1008093E100C3FF0FC010924E
:10158000E90081E08093EB001092EC0082E380930D
:10159000ED001092840288E08093F000C2FF19C031
:1015A00083E00E94980A80918602882339F0809116
:1015B0008602815080938602882389F1809185027A
:1015C000882339F080918502815080938502882399
:1015D00041F1C4FF10C08091E2008E7E8160809353
:1015E000E2008091E1008F7E8093E1008091820291
:1015F0008E7E806111C0C0FF16C08091E2008E7E99
:1016000080618093E2008091E1008E7E8093E10012
:10161000809182028E7E81608093820204C05D9AF6
:10162000CDCF289AD6CFFF91EF91CF91BF91AF91B7
:101630009F918F917F916F915F914F913F912F91EA
:101640000F900FBE0F901F90189510928402109269
:101650008302109282020E946B078091E1008E7ECD
:101660008093E1008DE08093E200559A209AEEEF9E
:10167000FFE7859194918B3F9C4D19F481E0809315
:101680007B0208950895EF92FF920F931F93CF93DB
:10169000DF937B01FC01C281D38100E010E0209741
:1016A00081F0E881F9810280F381E02DB701CE015C
:1016B000099597FD08C0080F191F0884D985C02D0A
:1016C000EECFC80102C08FEF9FEFDF91CF911F9146
:1016D0000F91FF90EF9008950F931F93CF93DF9397
:1016E0008B01FC01C281D381209771F0E881F981DF
:1016F0000480F581E02DB801CE010995009731F401
:101700000884D985C02DF0CF80E090E0DF91CF91A3
:101710001F910F9108950F931F93CF93DF938B0128
:10172000FC01C281D381209771F0E881F9810680A4
:10173000F781E02DB801CE010995080F111D08842D
:10174000D985C02DF0CFF8011082DF91CF911F9184
:101750000F9108950F931F93CF93DF938B01FC019B
:10176000C281D381209771F0E881F9810190F081E5
:10177000E02DB801CE010995811106C00884D985F4
:10178000C02DF0CF80E001C081E0DF91CF911F91AB
:101790000F91089580918B0281110DC082E080939A
:1017A000870284E08093880210928A021092890254
:1017B00081E080938B0287E892E00895A1E21A2EDF
:1017C000AA1BBB1BFD010DC0AA1FBB1FEE1FFF1FE5
:1017D000A217B307E407F50720F0A21BB30BE40B35
:1017E000F50B661F771F881F991F1A9469F760957C
:1017F0007095809590959B01AC01BD01CF01089536
:10180000EE0FFF1F0590F491E02D0994F894FFCF9F
:1018100001000000FFFFFFFF00E1000000000000EA
:1018200000C18081000000564D4450565F317C312C
:101830005F564D4450560D0A00564D4450455F3199
:10184000007C005F564D4450450D0A00564D4450F3
:10185000435F005F564D4450430D0A004572726F5E
:10186000723A20417474656D707420746F207365D2
:1018700074206120726561642D6F6E6C79207661D1
:10188000726961626C65206F72206461746120749A
:10189000797065206E6F7420737570706F727465E7
:1018A000640D0A0000000000410588056B057B05FA
:0418B000570568056B
:00000001FF
