:100000000C943F010C9470010C9470010C947001DD
:100010000C9470010C9470010C9470010C9470019C
:100020000C9470010C9470010C9470010C9470018C
:100030000C9470010C9470010C9470010C9470017C
:100040000C9470010C94A1030C9470010C94700139
:100050000C9470010C9470010C9470010C94CD0AF6
:100060000C9470010C94FB0D0C94310E0C947001E7
:100070000C9470010C9470010C9470010C9470013C
:100080000C94CF030C9470010C9470010C947001CB
:100090000C9470010C9470010C9470010C9470011C
:1000A0000C9470010C9470010C94FD030C9470017D
:1000B0000C9470010C9470010C9470010C942B043E
:1000C0000C9470010C9470010C9470010C947001EC
:1000D0000C9470010C9470010C9470010C947001DC
:1000E0000C947001DD0BE00BCF0BD30BD90B170C6D
:1000F000E40BE80BEE0BF20BF60BFC0B000C040C04
:10010000170C0A0C0E0C120C0C94E40B0C948501C9
:100110000C940A0C0C94A00C0C94DD0B0C94340D74
:100120000C940E0C0C94E80B0C94120C0C94B40C64
:100130000C94650E0C94F60B0C94170C0C94000C9C
:100140000C94D90B0C94F20B0C94D30B0C94B80EAA
:100150000C94FC0B0C94E00B0C94870C0C94CF0BC0
:100160000C94040C0C94EE0B0C945B0E0C94920CFF
:100170000C94120D00000A0B02090C0D0E08070367
:10018000040100000000000000000000000000006A
:10019000000000000000000000000000000000005F
:1001A000121110000000000000000000000000001C
:1001B00000000000000000000000010210202008E4
:1001C00008102040102040800201020108040201B2
:1001D0000102040810204080804020100804020121
:1001E000800402018040201008040201080402017A
:1001F0000102040810204080010204081020408001
:1002000005050505070508080808020202020A0A92
:1002100008080404040401010101010101010303B0
:10022000030303030303040707070C0C0C0C0C0C5B
:100230000C0C0202020206060606060606060B0B58
:100240000B0B0B0B0B0B00002200250028002B00D2
:100250002E003100340002010000050108010B01ED
:1002600000002100240027002A002D003000330068
:1002700001010000040107010A018501650E112436
:100280001FBECFEFD1E2DEBFCDBF00E00CBF12E05A
:10029000A0E0B2E0E0E0F0E200E00BBF02C00790B7
:1002A0000D92A432B107D9F724E0A4E2B2E001C074
:1002B0001D92A139B207E1F712E0CEE7D2E000E0EB
:1002C00006C022970109FE010BBF0E94EB0FCA373F
:1002D000D10780E00807A9F70E94A90E0C94FE0F31
:1002E0000C94000084E292E00E94360726E040E889
:1002F00055E260E070E084EF93E00E94990D64E0C5
:1003000072E084EF93E00C94110F0F931F93CF933F
:10031000DF93C4E2D2E00FE710E0CE010E9459045F
:10032000CE0103960E945904CE0106960E945904FC
:100330001E861D86188A1F861A8A198A1C8A1B8A9D
:100340001E8A1D8A188E1F8A1A8F098F6B9682E06B
:10035000C63CD80711F7DF91CF911F910F910895F7
:10036000CF9384EF93E00E94870C18161906A4F52A
:1003700084EF93E00E94A00CC82F682F84EF93E0D5
:100380000E94230FC336C9F04CF4C13689F0C2363F
:1003900019F584E292E0CF910C945B08C536B9F070
:1003A0008CF0C636C9F484E292E0CF910C94230A13
:1003B00084E292E0CF910C940C0884E292E0CF9119
:1003C0000C94AA0884E292E0CF910C94110984E283
:1003D00092E0CF910C947809CF910895CF92DF925B
:1003E000EF92FF920F931F93CF93DF936C018B01DA
:1003F0007A01EC01C953DD4F888187FF04C0FB01FE
:100400001182108224C02CE02C9DC0012D9D900DE6
:1004100011242881AC01420F511D27FD5A952091CE
:10042000C60230E04217530794F42881AC01420F12
:10043000511D27FD5A959A0146E0429FF001439FC6
:10044000F00D1124E553FD4F208126FD19C0888150
:100450008F5F88838CE08C9D90018D9D300D1124E1
:100460008881A901480F511D87FD5A958091C602C8
:1004700090E048175907B4F488818C3034F112C0E9
:100480002881820F911D27FD9A95489FF001499F71
:10049000F00D1124E553FD4F808160E08F730E94C1
:1004A000510CD5CFF8018081918184349C4918F496
:1004B00080E49CE904C0F801808191810496F701F1
:1004C000918380838FEF888333C18881A901480F8E
:1004D000511D87FD5A95CA0146E0489FF001499F8A
:1004E000F00D1124E553FD4F8581882309F4DEC00A
:1004F00088815881B901680F711D87FD7A95469FE3
:10050000D001479FB00D1124A553BD4FC901850FE0
:10051000911D57FD9A95489FF001499FF00D1124B8
:10052000E553FD4F13966D917C91149781819281D3
:1005300058818617970708F047C08881F901E80FAE
:10054000F11D87FDFA95CF01489FF001499FF00DFD
:100550001124E553FD4FC901850F911D57FD9A9553
:10056000489FD001499FB00D1124A553BD4F15964A
:100570005C9181819281850F911D92838183888115
:100580005881B901680F711D87FD7A95469FD0018A
:10059000479FB00D1124A553BD4FC901850F911D73
:1005A00057FD9A95489FF001499FF00D1124E5539E
:1005B000FD4F13966D917C911497818192818617DE
:1005C000970708F473C045C08881F901E80FF11D51
:1005D00087FDFA95CF01489FF001499FF00D112446
:1005E000E553FD4FC901850F911D57FD9A95489F11
:1005F000D001499FB00D1124A553BD4F15965C91B4
:1006000081819281851B91099283818388815881A0
:10061000B901680F711D87FD7A95469FD001479FEC
:10062000B00D1124A553BD4FC901850F911D57FD74
:100630009A95489FF001499FF00D1124E553FD4F15
:1006400013966D917C911497818192816817790737
:1006500068F158818881F901E80FF11D87FDFA954D
:10066000CF01489FF001499FF00D1124E553FD4F44
:1006700083819481B901650F711D57FD7A95469F5D
:10068000F001479FF00D1124E553FD4F92838183C4
:100690008881B901680F711D87FD7A95469FF00129
:1006A000479FF00D1124E553FD4F1582F80180811D
:1006B00091814881B901640F711D47FD7A95AB01A5
:1006C00066E0649FF001659FF00D1124E553FD4F36
:1006D00041815281840F951FF70191838083888126
:1006E000A901480F511D87FD5A95649FF001659F30
:1006F000F00D1124E553FD4F808186FF19C08881DC
:10070000280F311D87FD3A95629FF001639FF00D20
:100710001124E553FD4F808161E08F73DF91CF910C
:100720001F910F91FF90EF90DF90CF900C94510CA0
:10073000DF91CF911F910F91FF90EF90DF90CF90BD
:1007400008951F920F920FB60F9211240BB60F92BD
:100750002F933F934F935F936F937F938F939F93C9
:10076000AF93BF93EF93FF9348E850E064E870E0E5
:1007700081E090E00E94EE01FF91EF91BF91AF9177
:100780009F918F917F916F915F914F913F912F91A9
:100790000F900BBE0F900FBE0F901F9018951F92D9
:1007A0000F920FB60F9211240BB60F922F933F9317
:1007B0004F935F936F937F938F939F93AF93BF9369
:1007C000EF93FF9348E950E064E970E082E090E045
:1007D0000E94EE01FF91EF91BF91AF919F918F9198
:1007E0007F916F915F914F913F912F910F900BBE31
:1007F0000F900FBE0F901F9018951F920F920FB67B
:100800000F9211240BB60F922F933F934F935F9348
:100810006F937F938F939F93AF93BF93EF93FF93C8
:1008200048EA50E064EA70E083E090E00E94EE0164
:10083000FF91EF91BF91AF919F918F917F916F91B8
:100840005F914F913F912F910F900BBE0F900FBE74
:100850000F901F9018951F920F920FB60F921124B0
:100860000BB60F922F933F934F935F936F937F93AA
:100870008F939F93AF93BF93EF93FF9348E251E021
:1008800064E271E080E090E00E94EE01FF91EF9160
:10089000BF91AF919F918F917F916F915F914F9198
:1008A0003F912F910F900BBE0F900FBE0F901F9096
:1008B0001895E091C602E03388F421E02E0F2093D2
:1008C000C602DC01EC93B6E0EB9FF0011124E55386
:1008D000FD4F88EB9BE09283818308952FEFFC010D
:1008E00020830895DF92EF92FF920F931F93CF938F
:1008F000DF93EC01D62E7A0189018881803308F0DC
:1009000064C061E08D2D0E94180C888196E0899F5B
:10091000F0011124E553FD4F2D2D2F739081907C14
:10092000922B908360E272E06E197F0977FF02C01C
:100930006D5F7F4F7595679575956795698340E6FF
:1009400059E0401B510B57FF02C04D5F5F4F55955B
:100950004795559547954A836CE00E948D0F9CE022
:10096000899FA001112420E030E096E0B901640FD6
:10097000751F969FF001979FF00D1124E553FD4FD1
:10098000608166FD18C02F5F3F4F2C30310571F735
:1009900090E08130910511F51092800082E0809303
:1009A00081001092850010928400B19A80916F00AE
:1009B000826080936F00E88186E0E89FF001112457
:1009C000E553FD4F8081806480838881DF91CF91E2
:1009D0001F910F91FF90EF90DF9008958230910565
:1009E00069F41092900082E080939100109295003B
:1009F0001092940088BB80937100DDCF8330910505
:100A000069F41092A00082E08093A1001092A500EA
:100A10001092A40089BB80937200CDCF892B59F628
:100A20001092200182E08093210110922501109202
:100A300024018ABB80937300BECF20E639E040E2F8
:100A400052E00C947204DC01EC91E03380F51196D5
:100A50008C91119728E830E0281B310987FD3395E8
:100A6000220F331F220F331F6217730784F0129671
:100A70008C9128E532E0281B310987FD3395220F40
:100A8000331F220F331F621773070CF49B018FB7BC
:100A9000F89496E0E99FF0011124E553FD4F2250B0
:100AA0003109220F331F328321838FBF15820895AE
:100AB0004F925F926F927F92AF92BF92CF92DF92EE
:100AC000EF92FF920F931F93CF93DF93EC0160326D
:100AD00082E078070CF040C077FD06C0653B7105E9
:100AE0002CF064EB70E002C060E070E0898128E8DF
:100AF00030E0281B310987FD3395220F331F220F69
:100B0000331F5901CC24B7FCC094DC2C882777FD17
:100B10008095982F2A8148E552E0421B510927FD14
:100B20005395440F551F440F551F2A01662457FC47
:100B30006094762C7F926F925F924F9214EBE12E2D
:100B4000F12C00E010E020E030E0A9010E94350F18
:100B50000F900F900F900F90CE01DF91CF911F91CA
:100B60000F91FF90EF90DF90CF90BF90AF907F906C
:100B70006F905F904F900C9423059F92AF92BF921D
:100B8000CF92DF92EF92FF920F931F93CF93DF9359
:100B9000EC01942E442309F475C0603232E07307EF
:100BA0000CF03FC077FD06C0653B71052CF064EB8F
:100BB00070E002C060E070E0898128E830E0281B26
:100BC000310987FD3395220F331F220F331F59013F
:100BD000CC24B7FCC094DC2C882777FD8095982F17
:100BE0002A8108E512E0021B110927FD1395000F69
:100BF000111F000F111F222717FD2095322F3F9341
:100C00002F931F930F9314EBE12EF12C00E010E0D3
:100C100020E030E0A9010E94350F0F900F900F9057
:100C20000F90E881E033D8F5298188E890E0821BB5
:100C3000910927FD9395880F991F880F991F6817B1
:100C4000790784F08A8128E532E0281B310987FD85
:100C50003395220F331F220F331FCB01261737077F
:100C60000CF4C9012FB7F89436E0E39FF00111248A
:100C7000E553FD4F0297880F991F948383839582D4
:100C80002FBF0DC0DF91CF911F910F91FF90EF907B
:100C9000DF90CF90BF90AF909F900C945805DF915C
:100CA000CF911F910F91FF90EF90DF90CF90BF9069
:100CB000AF909F9008952F923F924F925F926F92C4
:100CC0007F928F929F92AF92BF92CF92DF92EF92DC
:100CD000FF920F931F93CF93DF93CDB7DEB73C0105
:100CE0002A0119010E941D056FE070E080E090E08C
:100CF0000E943A0BB201C30103960E941D056FE0EA
:100D000070E080E090E00E943A0BB101C3010696CA
:100D10000E941D056FE070E080E090E00E943A0BB9
:100D2000F30112870187F486E386D48AC38AB68AE0
:100D3000A58A908E878A80E590E096878587928B3A
:100D4000818B108A1786DF91CF911F910F91FF90B1
:100D5000EF90DF90CF90BF90AF909F908F907F905B
:100D60006F905F904F903F902F900895CF93DF93B7
:100D7000EC0189859A852D853E85829FB001839FF0
:100D8000700D929F700D1124665A7F4F4B895C89BC
:100D9000849F9001859F300D949F300D1124620F28
:100DA000731F498DCE010E94BD0589859A852F85C7
:100DB0003889829FB001839F700D929F700D11241E
:100DC000665A7F4F4D895E89849F9001859F300DC3
:100DD000949F300D1124620F731F4B855C85849F97
:100DE0009001859F300D949F300D1124620F731F69
:100DF000498DCE0103960E94BD0589859A85298972
:100E00003A89829FB001839F700D929F700D1124CB
:100E1000665A7F4F4F89588D849F9001859F300D72
:100E2000949F300D1124620F731F498DCE010696D9
:100E3000DF91CF910C94BD05FC018AE090E096878C
:100E400085878CE390E0928B818B8FEF90E0928F7F
:100E5000818F0895FC0180E590E096878587928BCD
:100E6000818B8EE190E0928F818F08952F923F9237
:100E70004F925F926F927F928F929F92AF92BF92AA
:100E8000CF92DF92EF92FF920F931F93CF93DF9356
:100E900000D000D0CDB7DEB79E838D832BEF822E9E
:100EA00099249A9435E0A32EB12CC12CD12C48E280
:100EB000E42EF12C0FEF1FEF28E130E046E150E087
:100EC00067E170E00E945B064D805E808BE1480E1A
:100ED000511C5AE0852E912CA12CB12C6AEFC62E04
:100EE000DD24DA9401E010E02BE130E049E150E04C
:100EF0006AE170E0C2010E945B066D807E8096E32D
:100F0000690E711C812C912C77E0A72EB12CEBEF90
:100F1000CE2EDD24DA94E12CF12C0FEF1FEF2EE121
:100F200030E04CE150E06DE170E0C3010E945B06EF
:100F30002D803E80E1E52E0E311CF2E0AF2EB12C6B
:100F4000C12CD12C01E010E021E230E04FE150E073
:100F500060E270E0C1010E945B068D819E81845930
:100F60009F4F9A838983A6EF8A2E99249A94A12C65
:100F7000B12CB5E0CB2ED12C18EDE12EFF24FA9444
:100F80000FEF1FEF24E230E042E250E063E270E056
:100F90000E945B06ED81FE81E957FF4FFC83EB83E6
:100FA000812C912CC12CD12C01E010E027E230E003
:100FB00045E250E066E270E0CF010E945B068D8161
:100FC0009E810E94B606C2010E94B606C3010E941D
:100FD000B606C1010E94B60689819A810E94B606B2
:100FE0008B819C8126960FB6F894DEBF0FBECDBFD5
:100FF000DF91CF911F910F91FF90EF90DF90CF90F5
:10100000BF90AF909F908F907F906F905F904F9028
:101010003F902F900C94B6068F929F92AF92BF9202
:10102000CF92DF92EF92FF920F931F93CF93DF93B4
:10103000EC010E941C074E018BE1880E911CC4013B
:101040000E941C075E0186E3A80EB11CC5010E9428
:101050001C076E0181E5C80ED11CC6010E941C0749
:101060007E018CE6E80EF11CC7010E941C078E0170
:1010700009571F4FC8010E941C07CE010E94B606E7
:10108000C4010E94B606C5010E94B606C6010E94B0
:10109000B606C7010E94B606C801DF91CF911F9125
:1010A0000F91FF90EF90DF90CF90BF90AF909F9007
:1010B0008F900C94B6068F929F92AF92BF92CF9270
:1010C000DF92EF92FF920F931F93CF93DF93EC0188
:1010D0000E942A074E018BE1880E911CC4010E94D8
:1010E0002A075E0186E3A80EB11CC5010E942A07EB
:1010F0006E0181E5C80ED11CC6010E942A077E013F
:101100008CE6E80EF11CC7010E942A078E010957E0
:101110001F4FC8010E942A07CE010E94B606C401D3
:101120000E94B606C5010E94B606C6010E94B60618
:10113000C7010E94B606C801DF91CF911F910F91A0
:10114000FF90EF90DF90CF90BF90AF909F908F90E7
:101150000C94B6068F929F92AF92BF92CF92DF927D
:10116000EF92FF920F931F93CF93DF93EC010E94B6
:101170001C074E018BE1880E911CC4010E941C07C4
:101180005E0186E3A80EB11CC5010E941C077E010A
:1011900081E5E80EF11CC7010E941C078E0104596D
:1011A0001F4FC8010E941C076E0187E8C80ED11CA2
:1011B000C6010E941C07CE010E94B606C4010E940F
:1011C000B606C5010E94B606C7010E94B606C80150
:1011D0000E94B606C6010E94B60668EE73E080E083
:1011E00090E00E943A0BCE010E942A07C7010E949C
:1011F0002A07C8010E942A07CE010E94B606C7012D
:101200000E94B606C801DF91CF911F910F91FF9008
:10121000EF90DF90CF90BF90AF909F908F900C9405
:10122000B6068F929F92AF92BF92CF92DF92EF92CB
:10123000FF920F931F93CF93DF93EC010E941C0743
:101240006E018BE1C80ED11CC6010E941C077E01F5
:1012500086E3E80EF11CC7010E941C074E0181E5E0
:10126000880E911CC4010E941C075E018CE6A80E2A
:10127000B11CC5010E941C078E0109571F4FC801F0
:101280000E941C07CE010E94B606C6010E94B60647
:10129000C7010E94B606C4010E94B606C5010E949D
:1012A000B606C8010E94B60668EE73E080E090E0E2
:1012B0000E943A0BC6010E942A07C7010E942A0712
:1012C000C8010E942A07C6010E94B606C7010E94F3
:1012D000B606C801DF91CF911F910F91FF90EF905B
:1012E000DF90CF90BF90AF909F908F900C94B606F8
:1012F0004F925F926F927F928F929F92AF92BF9226
:10130000CF92DF92EF92FF920F931F93CF93DF93D1
:10131000EC010E94110964EF71E080E090E00E940E
:101320003A0B0AE010E01BA70AA75E0185E4A80EAD
:10133000B11CF501118300836E01F6E9CF0ED11CBB
:10134000F601118300833E01FBE16F0E711CC301A6
:101350000E94B6064E0186E3880E911CC4010E94CD
:10136000B6062E01E7E84E0E511CC2010E94B606D9
:1013700064EF71E080E090E00E943A0BCE010E94A1
:10138000AA0864EF71E080E090E00E943A0B86EFDB
:10139000E82EFF24FA94FBA6EAA6F501F182E0828A
:1013A000F601F182E082188B0F875E01F0E6AF0E46
:1013B000B11CF501118300836E01FBE7CF0ED11C38
:1013C000F60111830083CE010E94B606C3010E947C
:1013D000B606C4010E94B606CE018F5A9F4F0E94E6
:1013E000B606CE0184599F4F0E94B606C2010E94E4
:1013F000B606F88AEF86F501F182E082F601F18205
:10140000E08264EF71E080E090E00E943A0BCE0150
:101410000E94110964EF71E080E090E00E943A0BB5
:10142000CE01DF91CF911F910F91FF90EF90DF9050
:10143000CF90BF90AF909F908F907F906F905F9074
:101440004F900C940C084F925F926F927F928F9204
:101450009F92AF92BF92CF92DF92EF92FF920F9343
:101460001F93CF93DF93EC010E94110964EF71E0A9
:1014700080E090E00E943A0B06EF1FEF1BA70AA73F
:101480005E0185E4A80EB11CF501118300836E0195
:10149000F6E9CF0ED11CF601118300833E01FBE17A
:1014A0006F0E711CC3010E94B6064E0186E3880EC2
:1014B000911CC4010E94B6062E01E7E84E0E511C95
:1014C000C2010E94B60664EF71E080E090E00E94E5
:1014D0003A0BCE010E94AA0864EF71E080E090E030
:1014E0000E943A0B9AE0E92EF12CFBA6EAA6F50140
:1014F000F182E082F601F182E082188B0F875E01B3
:10150000F0E6AF0EB11CF501118300836E01FBE71D
:10151000CF0ED11CF60111830083CE010E94B606C6
:10152000C3010E94B606C4010E94B606CE018F5ABE
:101530009F4F0E94B606CE0184599F4F0E94B60667
:10154000C2010E94B606F88AEF86F501F182E082B8
:10155000F601F182E08264EF71E080E090E00E94A9
:101560003A0BCE010E94110964EF71E080E090E037
:101570000E943A0BCE01DF91CF911F910F91FF9006
:10158000EF90DF90CF90BF90AF909F908F907F9023
:101590006F905F904F900C940C081F920F920FB6B3
:1015A0000F9211242F933F938F939F93AF93BF93E9
:1015B0008091EC039091ED03A091EE03B091EF03C5
:1015C0003091EB0323E0230F2D3720F40196A11D6A
:1015D000B11D05C026E8230F0296A11DB11D209361
:1015E000EB038093EC039093ED03A093EE03B09391
:1015F000EF038091F0039091F103A091F203B09179
:10160000F3030196A11DB11D8093F0039093F103A4
:10161000A093F203B093F303BF91AF919F918F9189
:101620003F912F910F900FBE0F901F9018953FB7CD
:10163000F8948091F0039091F103A091F203B0919E
:10164000F30326B5A89B05C02F3F19F00196A11DF5
:10165000B11D3FBF6627782F892F9A2F620F711D0A
:10166000811D911D42E0660F771F881F991F4A95C3
:10167000D1F70895CF92DF92EF92FF92CF93DF934D
:101680006B017C010E94170BEB01C114D104E10432
:10169000F10489F00E947C0F0E94170B6C1B7D0BDC
:1016A000683E734090F381E0C81AD108E108F10860
:1016B000C851DC4FEACFDF91CF91FF90EF90DF90E0
:1016C000CF900895789484B5826084BD84B581609C
:1016D00084BD85B5826085BD85B5816085BDEEE63A
:1016E000F0E0808181608083E1E8F0E01082808119
:1016F00082608083808181608083E0E8F0E0808187
:1017000081608083E1EBF0E0808184608083E0EBA6
:10171000F0E0808181608083E1E9F0E08081826097
:101720008083808181608083E0E9F0E08081816056
:101730008083E1EAF0E08081826080838081816043
:101740008083E0EAF0E0808181608083E1E2F1E083
:10175000808182608083808181608083E0E2F1E02B
:10176000808181608083EAE7F0E08081846080830B
:1017700080818260808380818160808380818068B5
:1017800080831092C100089590E0FC013197E2310E
:10179000F10508F04CC0EE58FF4F0C94DA0F809121
:1017A00080008F7703C0809180008F7D80938000C0
:1017B000089580918000877FF9CF84B58F7702C02C
:1017C00084B58F7D84BD08958091B0008F7703C06C
:1017D0008091B0008F7D8093B0000895809190003B
:1017E0008F7707C0809190008F7D03C0809190001B
:1017F000877F8093900008958091A0008F7707C025
:101800008091A0008F7D03C08091A000877F80938E
:10181000A0000895809120018F7707C0809120015A
:101820008F7D03C080912001877F809320010895E0
:10183000CF93DF9390E0FC01E654FE4F2491FC012E
:10184000E050FE4F8491882349F190E0880F991F62
:10185000FC01E05AFD4FA591B4918A5B9D4FFC01BC
:10186000C591D4919FB7611108C0F8948C912095CF
:1018700082238C93888182230AC0623051F4F894C9
:101880008C91322F309583238C938881822B88838F
:1018900004C0F8948C91822B8C939FBFDF91CF91E1
:1018A00008950F931F93CF93DF931F92CDB7DEB7A9
:1018B000282F30E0F901EC58FE4F8491F901E654ED
:1018C000FE4F1491F901E050FE4F04910023C9F03E
:1018D000882321F069830E94C40B6981E02FF0E026
:1018E000EE0FFF1FEA5BFD4FA591B4919FB7F894EF
:1018F0008C91611103C01095812301C0812B8C93C1
:101900009FBF0F90DF91CF911F910F910895FC0120
:10191000818D228D90E0805C9F4F821B91098F7397
:1019200099270895FC01918D828D981731F0828D51
:10193000E80FF11D858D90E008958FEF9FEF0895DA
:10194000FC01918D828D981761F0828DDF01A80FC7
:10195000B11D5D968C91928D9F5F9F73928F90E0E9
:1019600008958FEF9FEF08958BE59EE0892B41F05E
:1019700080E090E0892B21F00E945B0E811125C050
:1019800080E090E0892B41F080E090E0892B21F00D
:101990000E94000081111CC080E090E0892B41F082
:1019A00080E090E0892B21F00E940000811113C09B
:1019B00080E090E0892BA1F080E090E0892B81F01D
:1019C0000E94000081110AC008950E940000D8CF33
:1019D0000E940000E1CF0E940000EACF0C940000BA
:1019E0000895FC01848DDF01A80FB11DA35ABF4FDC
:1019F0002C91848D90E001968F739927848FA6890E
:101A0000B7892C93A089B1898C9180648C93938D34
:101A1000848D981306C00288F389E02D80818F7D24
:101A200080830895CF93DF93EC01888D8823C9F0DC
:101A3000EA89FB89808185FD05C0A889B9898C91D7
:101A400086FD0FC00FB607FCF5CF808185FFF2CF72
:101A5000A889B9898C9185FFEDCFCE010E94F10C48
:101A6000E7CFDF91CF910895CF92DF92FF920F934E
:101A70001F93CF93DF931F92CDB7DEB76C01DC01CC
:101A80005B969C915B975C968C915C97981307C0D2
:101A90005096ED91FC915197808185FD32C0F60101
:101AA000038D10E00F5F1F4F0F731127F02EF6010B
:101AB000848DF81211C00FB607FCF9CFD6015096ED
:101AC000ED91FC915197808185FFF1CFC60169832B
:101AD0000E94F10C6981EBCF838DE80FF11DE35A71
:101AE000FF4F6083D6015B960C935B975296ED9106
:101AF000FC91539780818062808381E058968C931B
:101B00000DC0D6015696ED91FC9157976083509683
:101B1000ED91FC91519780818064808381E090E019
:101B20000F90DF91CF911F910F91FF90DF90CF9099
:101B30000895BF92CF92DF92EF92FF92CF93DF93FF
:101B4000EC016A017B01B22EE889F98982E0808389
:101B5000411581EE580761057105A1F060E079E05B
:101B60008DE390E0A70196010E94990F2150310961
:101B7000410951095695479537952795211580E1DB
:101B8000380798F0E889F989108260E874E88EE1F6
:101B900090E0A70196010E94990F21503109410957
:101BA00051095695479537952795EC85FD853083E6
:101BB000EE85FF852083188EEC89FD89B082EA8945
:101BC000FB89808180618083EA89FB8980818860CC
:101BD0008083EA89FB89808180688083EA89FB8928
:101BE00080818F7D8083DF91CF91FF90EF90DF9098
:101BF000CF90BF9008951F920F920FB60F921124AD
:101C00000BB60F922F938F939F93EF93FF93E091D7
:101C10000404F09105048081E0910A04F0910B0422
:101C200082FD12C0908180910D048F5F8F7320918F
:101C30000E04821751F0E0910D04F0E0EC50FC4FDF
:101C4000958F80930D0401C08081FF91EF919F914A
:101C50008F912F910F900BBE0F900FBE0F901F9082
:101C600018951F920F920FB60F9211240BB60F9278
:101C70002F933F934F935F936F937F938F939F9394
:101C8000AF93BF93EF93FF9384EF93E00E94F10C27
:101C9000FF91EF91BF91AF919F918F917F916F9144
:101CA0005F914F913F912F910F900BBE0F900FBE00
:101CB0000F901F90189584EF93E00E94870C21E00D
:101CC000892B09F420E0822F08951092F7031092D7
:101CD000F60388EE93E0A0E0B0E08093F8039093E1
:101CE000F903A093FA03B093FB0387E192E090938A
:101CF000F5038093F40385EC90E0909301048093C6
:101D0000000484EC90E0909303048093020480EC40
:101D100090E0909305048093040481EC90E090930C
:101D200007048093060482EC90E09093090480936A
:101D3000080486EC90E090930B0480930A041092C0
:101D40000D0410920E0410920F04109210040895C6
:101D500008950E94620B0E94A80E0E947201C4EBBB
:101D6000DCE00E94B0012097E1F30E94B40CF9CFAF
:101D7000CF92DF92EF92FF920F931F93CF93DF9357
:101D80006C017A01EB01E60EF71E00E010E0CE15C3
:101D9000DF0561F06991D601ED91FC910190F08130
:101DA000E02DC6011995080F191FF1CFC801DF9169
:101DB000CF911F910F91FF90EF90DF90CF900895FA
:101DC0006115710581F0DB010D900020E9F7AD018F
:101DD00041505109461B570BDC01ED91FC910280EB
:101DE000F381E02D199480E090E00895DC01ED91FD
:101DF000FC910190F081E02D19940F931F93CF93E4
:101E0000DF93EC016DE00E94F60E8C016AE0CE01DA
:101E10000E94F60E800F911FDF91CF911F910F91BD
:101E200008950F931F93CF93DF93EC010E94E00E70
:101E30008C01CE010E94FD0E800F911FDF91CF918A
:101E40001F910F9108950F931F93CF93DF93EC0190
:101E50000E94F60E8C01CE010E94FD0E800F911F94
:101E6000DF91CF911F910F9108954F925F926F92E2
:101E70007F92AF92BF92CF92DF92EF92FF920F9339
:101E80001F93CF93DF93CDB7DEB729013A01621BD1
:101E9000730B840B950B2A893B894C895D892A1920
:101EA0003B094C095D092A8B3B8B4C8B5D8B9B015D
:101EB000AC016A897B898C899D890E947D0FE41819
:101EC000F50806091709A80197010E94BB0F2A0D02
:101ED0003B1D4C1D5D1DCA01B901DF91CF911F91C2
:101EE0000F91FF90EF90DF90CF90BF90AF907F90D9
:101EF0006F905F904F9008950895DB018F939F93AB
:101F00000E94E00FBF91AF91A29F800D911DA39FF2
:101F1000900DB29F900D11240895991B79E004C093
:101F2000991F961708F0961B881F7A95C9F7809518
:101F30000895A1E21A2EAA1BBB1BFD010DC0AA1F0A
:101F4000BB1FEE1FFF1FA217B307E407F50720F022
:101F5000A21BB30BE40BF50B661F771F881F991F9D
:101F60001A9469F760957095809590959B01AC01E6
:101F7000BD01CF010895052E97FB1EF400940E9429
:101F8000D20F57FD07D00E94990F07FC03D04EF4E3
:101F90000C94D20F50954095309521953F4F4F4F5F
:101FA0005F4F089590958095709561957F4F8F4F05
:101FB0009F4F0895EE0FFF1F0590F491E02D1994A7
:101FC0000E94EF0FA59F900DB49F900DA49F800DD0
:101FD000911D112408950790F691E02D1994A29F68
:101FE000B001B39FC001A39F700D811D1124911DED
:101FF000B29F700D811D1124911D0895F894FFCF9B
:102000000100000048656C6C6F20436F6D70757443
:1020100065720000000000340DB80E870CA00C9211
:042020000C120D0091
:00000001FF
