:100000000C943F010C9470010C9470010C947001DD
:100010000C9470010C9470010C9470010C9470019C
:100020000C9470010C9470010C9470010C9470018C
:100030000C9470010C9470010C9470010C9470017C
:100040000C9470010C947D030C9470010C9470015D
:100050000C9470010C9470010C9470010C9436088F
:100060000C9470010C94640B0C949A0B0C9470011A
:100070000C9470010C9470010C9470010C9470013C
:100080000C94AB030C9470010C9470010C947001EF
:100090000C9470010C9470010C9470010C9470011C
:1000A0000C9470010C9470010C94D9030C947001A1
:1000B0000C9470010C9470010C9470010C94070462
:1000C0000C9470010C9470010C9470010C947001EC
:1000D0000C9470010C9470010C9470010C947001DC
:1000E0000C9470014609490938093C094209800904
:1000F0004D09510957095B095F09650969096D09CE
:100100008009730977097B090C945F090C948501B8
:100110000C949D0A0C9477090C94CE0B0C9438091E
:100120000C94F0090C9480090C9449090C943C0936
:100130000C9442090C9446090C946D090C94FB092B
:100140000C94210C0C9473090C9469090C945109BA
:100150000C944D090C94090A0C94C40B0C941D0AC0
:100160000C9465090C947B090C947B0A0C94570938
:100170000C945B0900000A0B02090C0D0E08070322
:10018000040100000000000000000000000000006A
:10019000000000000000000000000000000000005F
:1001A000121110000000000000000000000000001C
:1001B00000000000000000000000010210202008E4
:1001C00008102040102040800201020108040201B2
:1001D0000102040810204080804020100804020121
:1001E000800402018040201008040201080402017A
:1001F0000102040810204080010204081020408001
:1002000005050505070508080808020202020A0A92
:1002100008080404040401010101010101010303B0
:10022000030303030303040707070C0C0C0C0C0C5B
:100230000C0C0202020206060606060606060B0B58
:100240000B0B0B0B0B0B00002200250028002B00D2
:100250002E003100340002010000050108010B01ED
:1002600000002100240027002A002D003000330068
:1002700001010000040107010A018501CE0B1124D0
:100280001FBECFEFD1E2DEBFCDBF00E00CBF12E05A
:10029000A0E0B2E0E2EDFAE100E00BBF02C007909F
:1002A0000D92A432B107D9F724E0A4E2B2E001C074
:1002B0001D92A538B207E1F712E0CEE7D2E000E0E8
:1002C00006C022970109FE010BBF0E94540DCA37D8
:1002D000D10780E00807A9F70E94120C0C94670D63
:1002E0000C94000084E292E00E944D0726E040E872
:1002F00055E260E070E088EE93E00E94020B64E05B
:1003000072E088EE93E00C947A0CCF93DF93C4E212
:10031000D2E0CE010E943504CE0103960E9435043E
:10032000CE0106960E9435041E861D86188A1F86F9
:100330001A8A198A1C8A1B8A1E8A1D8A188E1F8A8D
:10034000699682E0CA3BD80721F7DF91CF910895E3
:10035000CF9388EE93E00E94F00918161906C4F4B2
:1003600088EE93E00E94090AC82F682F88EE93E078
:100370000E948C0CC13639F0C23651F484E292E00E
:10038000CF910C94030884E292E0CF910C94D007B3
:10039000CF910895CF92DF92EF92FF920F931F9328
:1003A000CF93DF936C018B017A01EC01C554DD4FD3
:1003B000888187FF04C0FB011182108224C02CE0D9
:1003C0002C9DC0012D9D900D11242881AC01420F60
:1003D000511D27FD5A952091BA0230E0421753076C
:1003E00094F42881AC01420F511D27FD5A959A01C2
:1003F00046E0429FF001439FF00D1124E154FD4F70
:10040000208126FD19C088818F5F88838CE08C9DB8
:1004100090018D9D300D11248881A901480F511D37
:1004200087FD5A958091BA0290E048175907B4F4B5
:1004300088818C3034F112C02881820F911D27FDF4
:100440009A95489FF001499FF00D1124E154FD4F0A
:10045000808160E08F730E94BA09D5CFF801808156
:10046000918184349C4918F480E49CE904C0F8012B
:10047000808191810496F701918380838FEF888337
:1004800033C18881A901480F511D87FD5A95CA01C2
:1004900046E0489FF001499FF00D1124E154FD4FC3
:1004A0008581882309F4DEC088815881B901680FED
:1004B000711D87FD7A95469FD001479FB00D11248D
:1004C000A154BD4FC901850F911D57FD9A95489FB5
:1004D000F001499FF00D1124E154FD4F13966D91E9
:1004E0007C9114978181928158818617970708F033
:1004F00047C08881F901E80FF11D87FDFA95CF010A
:10050000489FF001499FF00D1124E154FD4FC901AE
:10051000850F911D57FD9A95489FD001499FB00DB9
:100520001124A154BD4F15965C9181819281850F54
:10053000911D9283818388815881B901680F711D53
:1005400087FD7A95469FD001479FB00D1124A15495
:10055000BD4FC901850F911D57FD9A95489FF00128
:10056000499FF00D1124E154FD4F13966D917C913C
:100570001497818192818617970708F473C045C04C
:100580008881F901E80FF11D87FDFA95CF01489F99
:10059000F001499FF00D1124E154FD4FC901850F71
:1005A000911D57FD9A95489FD001499FB00D112488
:1005B000A154BD4F15965C9181819281851B910953
:1005C0009283818388815881B901680F711D87FDED
:1005D0007A95469FD001479FB00D1124A154BD4F7D
:1005E000C901850F911D57FD9A95489FF001499FBC
:1005F000F00D1124E154FD4F13966D917C911497E9
:10060000818192816817790768F158818881F901A1
:10061000E80FF11D87FDFA95CF01489FF001499F32
:10062000F00D1124E154FD4F83819481B901650FD0
:10063000711D57FD7A95469FF001479FF00D1124DB
:10064000E154FD4F928381838881B901680F711D48
:1006500087FD7A95469FF001479FF00D1124E154E4
:10066000FD4F1582F801808191814881B901640FA5
:10067000711D47FD7A95AB0166E0649FF001659FAF
:10068000F00D1124E154FD4F41815281840F951FDB
:10069000F701918380838881A901480F511D87FD4F
:1006A0005A95649FF001659FF00D1124E154FD4FB0
:1006B000808186FF19C08881280F311D87FD3A95FA
:1006C000629FF001639FF00D1124E154FD4F808182
:1006D00061E08F73DF91CF911F910F91FF90EF90A9
:1006E000DF90CF900C94BA09DF91CF911F910F91B9
:1006F000FF90EF90DF90CF9008951F920F920FB66A
:100700000F9211240BB60F922F933F934F935F9349
:100710006F937F938F939F93AF93BF93EF93FF93C9
:1007200048E850E064E870E081E090E00E94CA018F
:10073000FF91EF91BF91AF919F918F917F916F91B9
:100740005F914F913F912F910F900BBE0F900FBE75
:100750000F901F9018951F920F920FB60F921124B1
:100760000BB60F922F933F934F935F936F937F93AB
:100770008F939F93AF93BF93EF93FF9348E950E01C
:1007800064E970E082E090E00E94CA01FF91EF917D
:10079000BF91AF919F918F917F916F915F914F9199
:1007A0003F912F910F900BBE0F900FBE0F901F9097
:1007B00018951F920F920FB60F9211240BB60F923D
:1007C0002F933F934F935F936F937F938F939F9359
:1007D000AF93BF93EF93FF9348EA50E064EA70E071
:1007E00083E090E00E94CA01FF91EF91BF91AF9129
:1007F0009F918F917F916F915F914F913F912F9139
:100800000F900BBE0F900FBE0F901F9018951F9268
:100810000F920FB60F9211240BB60F922F933F93A6
:100820004F935F936F937F938F939F93AF93BF93F8
:10083000EF93FF9348E251E064E271E080E090E0E2
:100840000E94CA01FF91EF91BF91AF919F918F914B
:100850007F916F915F914F913F912F910F900BBEC0
:100860000F900FBE0F901F901895E091BA02E033E1
:1008700088F421E02E0F2093BA02DC01EC93B6E05D
:10088000EB9FF0011124E154FD4F88EB9BE0928334
:10089000818308952FEFFC0120830895DF92EF926A
:1008A000FF920F931F93CF93DF93EC01D62E7A0123
:1008B00089018881803308F064C061E08D2D0E9439
:1008C0008109888196E0899FF0011124E154FD4F50
:1008D0002D2D2F739081907C922B908360E272E09B
:1008E0006E197F0977FF02C06D5F7F4F7595679521
:1008F00075956795698340E659E0401B510B57FF9A
:1009000002C04D5F5F4F55954795559547954A8372
:100910006CE00E94F60C9CE0899FA001112420E06D
:1009200030E096E0B901640F751F969FF001979F24
:10093000F00D1124E154FD4F608166FD18C02F5F5A
:100940003F4F2C30310571F790E08130910511F562
:100950001092800082E080938100109285001092B6
:100960008400B19A80916F00826080936F00E8816B
:1009700086E0E89FF0011124E154FD4F80818064FE
:1009800080838881DF91CF911F910F91FF90EF902D
:10099000DF9008958230910569F41092900082E012
:1009A00080939100109295001092940088BB8093E0
:1009B0007100DDCF8330910569F41092A00082E0D0
:1009C0008093A1001092A5001092A40089BB80938F
:1009D0007200CDCF892B59F61092200182E08093CE
:1009E000210110922501109224018ABB809373008B
:1009F000BECF20E639E040E252E00C944E04DC0128
:100A0000EC91E03380F511968C91119728E830E055
:100A1000281B310987FD3395220F331F220F331F07
:100A20006217730784F012968C9128E532E0281B38
:100A3000310987FD3395220F331F220F331F6217B1
:100A400073070CF49B018FB7F89496E0E99FF001CF
:100A50001124E154FD4F22503109220F331F3283FC
:100A600021838FBF158208954F925F926F927F927C
:100A7000AF92BF92CF92DF92EF92FF920F931F93AC
:100A8000CF93DF93EC01603282E078070CF040C036
:100A900077FD06C0653B71052CF064EB70E002C089
:100AA00060E070E0898128E830E0281B310987FD8B
:100AB0003395220F331F220F331F5901CC24B7FC6B
:100AC000C094DC2C882777FD8095982F2A8148E5F3
:100AD00052E0421B510927FD5395440F551F440F07
:100AE000551F2A01662457FC6094762C7F926F92E2
:100AF0005F924F9214EBE12EF12C00E010E020E029
:100B000030E0A9010E949E0C0F900F900F900F9063
:100B1000CE01DF91CF911F910F91FF90EF90DF9069
:100B2000CF90BF90AF907F906F905F904F900C945C
:100B3000FF049F92AF92BF92CF92DF92EF92FF920B
:100B40000F931F93CF93DF93EC01942E442309F46A
:100B500075C0603232E073070CF03FC077FD06C00D
:100B6000653B71052CF064EB70E002C060E070E062
:100B7000898128E830E0281B310987FD3395220F51
:100B8000331F220F331F5901CC24B7FCC094DC2C37
:100B9000882777FD8095982F2A8108E512E0021BAF
:100BA000110927FD1395000F111F000F111F222798
:100BB00017FD2095322F3F932F931F930F9314EB24
:100BC000E12EF12C00E010E020E030E0A9010E94CD
:100BD0009E0C0F900F900F900F90E881E033D8F5A6
:100BE000298188E890E0821B910927FD9395880F61
:100BF000991F880F991F6817790784F08A8128E563
:100C000032E0281B310987FD3395220F331F220F55
:100C1000331FCB01261737070CF4C9012FB7F894FF
:100C200036E0E39FF0011124E154FD4F0297880F55
:100C3000991F9483838395822FBF0DC0DF91CF913D
:100C40001F910F91FF90EF90DF90CF90BF90AF90EA
:100C50009F900C943405DF91CF911F910F91FF90DD
:100C6000EF90DF90CF90BF90AF909F9008952F921C
:100C70003F924F925F926F927F928F929F92AF922C
:100C8000BF92CF92DF92EF92FF920F931F93CF9379
:100C9000DF93CDB7DEB73C012A0119010E94F904A8
:100CA0006FE070E080E090E00E94A308B201C30111
:100CB00003960E94F9046FE070E080E090E00E94EB
:100CC000A308B101C30106960E94F9046FE070E029
:100CD00080E090E00E94A308F30112870187F48668
:100CE000E386D48AC38AB68AA58A908E878A8CE3E3
:100CF00090E096878587928B818BF1E0EF16F10467
:100D000049F082E0E816F10449F0EF2861F48CEE36
:100D10009FEF06C0F301108A178605C084E190E0BA
:100D2000F301908B8787DF91CF911F910F91FF90F7
:100D3000EF90DF90CF90BF90AF909F908F907F907B
:100D40006F905F904F903F902F900895CF93DF93D7
:100D5000EC0189859A852D853E85829FB001839F10
:100D6000700D929F700D1124665A7F4F4B895C89DC
:100D7000849F9001859F300D949F300D1124620F48
:100D8000731F4EE1CE010E9499056FE070E080E094
:100D900090E00E94A30889859A852F853889829FD3
:100DA000B001839F700D929F700D1124665A7F4F82
:100DB0004D895E89849F9001859F300D949F300DF1
:100DC0001124620F731F4EE1CE0103960E94990514
:100DD0006FE070E080E090E00E94A30889859A852A
:100DE00029893A89829FB001839F700D929F700D6F
:100DF0001124665A7F4F4F89588D849F9001859F9B
:100E0000300D949F300D1124620F731F4EE1CE01FF
:100E100006960E9499056FE070E080E090E0DF9117
:100E2000CF910C94A308FC018AE090E09687858717
:100E30008CE390E0928B818B838594858130910542
:100E400041F08230910541F0892B51F48CEE9FEFF7
:100E500005C0108A1786089584E190E0908B8787FB
:100E60000895FC018CE390E096878587928B818BB7
:100E7000838594858130910541F08230910541F060
:100E8000892B51F48CEE9FEF05C0108A17860895C8
:100E900084E190E0908B878708952F923F924F9244
:100EA0005F926F927F928F929F92AF92BF92CF92FA
:100EB000DF92EF92FF920F931F93CF93DF93EC019A
:100EC000812C912CA12CB12CC12CD12C82E0E82EAC
:100ED000F12C0FEF1FEF28E130E046E150E067E131
:100EE00070E0CE010E9437062E0189E1480E511CA8
:100EF0009AE0892E912C01E010E02BE130E049E1ED
:100F000050E06AE170E0C2010E9437063E0184E6CB
:100F1000680E711C26EF822E99249A9435E0C32E18
:100F2000D12CE12CF12C0FEF1FEF24E230E042E254
:100F300050E063E270E0C3010E9437061E018DE7B6
:100F4000280E311C4AE0842E912CC12CD12C01E0BA
:100F500010E027E230E045E250E066E270E0C101D7
:100F60000E943706CE010E94A606C2010E94A60674
:100F7000C3010E94A606C101DF91CF911F910F917D
:100F8000FF90EF90DF90CF90BF90AF909F908F90A9
:100F90007F906F905F904F903F902F900C94A6069B
:100FA000CF92DF92EF92FF920F931F93CF93DF9335
:100FB000EC010E9413076E0189E1C80ED11CC60125
:100FC0000E9413077E0184E6E80EF11CC7010E940F
:100FD00013078E0103581F4FC8010E941307CE014B
:100FE0000E94A606C6010E94A606C7010E94A60688
:100FF000C801DF91CF911F910F91FF90EF90DF908B
:10100000CF900C94A606CF92DF92EF92FF920F93AF
:101010001F93CF93DF93EC010E9431076E0189E1AA
:10102000C80ED11CC6010E9431077E0184E6E80E7D
:10103000F11CC7010E9431078E0103581F4FC801E0
:101040000E943107CE010E94A606C6010E94A60694
:10105000C7010E94A606C801DF91CF911F910F9191
:10106000FF90EF90DF90CF900C94A6061F920F9206
:101070000FB60F9211242F933F938F939F93AF93AB
:10108000BF938091E0039091E103A091E203B091BE
:10109000E3033091DF0323E0230F2D3720F4019683
:1010A000A11DB11D05C026E8230F0296A11DB11D8B
:1010B0002093DF038093E0039093E103A093E20386
:1010C000B093E3038091E4039091E503A091E603DC
:1010D000B091E7030196A11DB11D8093E4039093A5
:1010E000E503A093E603B093E703BF91AF919F910F
:1010F0008F913F912F910F900FBE0F901F901895D9
:101100003FB7F8948091E4039091E503A091E60342
:10111000B091E70326B5A89B05C02F3F19F00196B3
:10112000A11DB11D3FBF6627782F892F9A2F620F0F
:10113000711D811D911D42E0660F771F881F991F49
:101140004A95D1F70895CF92DF92EF92FF92CF9315
:10115000DF936B017C010E948008EB01C114D10474
:10116000E104F10489F00E94E50C0E9480086C1BE8
:101170007D0B683E734090F381E0C81AD108E10806
:10118000F108C851DC4FEACFDF91CF91FF90EF908B
:10119000DF90CF900895789484B5826084BD84B543
:1011A000816084BD85B5826085BD85B5816085BD62
:1011B000EEE6F0E0808181608083E1E8F0E010827B
:1011C000808182608083808181608083E0E8F0E0BC
:1011D000808181608083E1EBF0E0808184608083A6
:1011E000E0EBF0E0808181608083E1E9F0E08081E4
:1011F00082608083808181608083E0E9F0E080818B
:1012000081608083E1EAF0E0808182608083808178
:1012100081608083E0EAF0E0808181608083E1E2A8
:10122000F1E0808182608083808181608083E0E260
:10123000F1E0808181608083EAE7F0E08081846072
:1012400080838081826080838081816080838081CF
:10125000806880831092C100089590E0FC0131976E
:10126000E231F10508F04CC0EE58FF4F0C94430DED
:10127000809180008F7703C0809180008F7D809364
:101280008000089580918000877FF9CF84B58F77A3
:1012900002C084B58F7D84BD08958091B0008F77A2
:1012A00003C08091B0008F7D8093B000089580913D
:1012B00090008F7707C0809190008F7D03C0809150
:1012C0009000877F8093900008958091A0008F7791
:1012D00007C08091A0008F7D03C08091A000877F10
:1012E0008093A0000895809120018F7707C080919E
:1012F00020018F7D03C080912001877F8093200192
:101300000895CF93DF9390E0FC01E654FE4F2491C3
:10131000FC01E050FE4F8491882349F190E0880F52
:10132000991FFC01E05AFD4FA591B4918A5B9D4F36
:10133000FC01C591D4919FB7611108C0F8948C91BC
:10134000209582238C93888182230AC0623051F4D5
:10135000F8948C91322F309583238C938881822B43
:10136000888304C0F8948C91822B8C939FBFDF916B
:10137000CF9108950F931F93CF93DF931F92CDB713
:10138000DEB7282F30E0F901EC58FE4F8491F901C7
:10139000E654FE4F1491F901E050FE4F04910023F2
:1013A000C9F0882321F069830E942D096981E02F0B
:1013B000F0E0EE0FFF1FEA5BFD4FA591B4919FB7E0
:1013C000F8948C91611103C01095812301C0812B89
:1013D0008C939FBF0F90DF91CF911F910F91089534
:1013E000FC01818D228D90E0805C9F4F821B9109D2
:1013F0008F7399270895FC01918D828D981731F094
:10140000828DE80FF11D858D90E008958FEF9FEF9D
:101410000895FC01918D828D981761F0828DDF0116
:10142000A80FB11D5D968C91928D9F5F9F73928FD7
:1014300090E008958FEF9FEF089584EC9BE0892B57
:1014400041F080E090E0892B21F00E94C40B8111D3
:1014500025C080E090E0892B41F080E090E0892B6E
:1014600021F00E94000081111CC080E090E0892BD7
:1014700041F080E090E0892B21F00E940000811172
:1014800013C080E090E0892BA1F080E090E0892BF0
:1014900081F00E94000081110AC008950E9400009E
:1014A000D8CF0E940000E1CF0E940000EACF0C9448
:1014B00000000895FC01848DDF01A80FB11DA35A1F
:1014C000BF4F2C91848D90E001968F739927848F64
:1014D000A689B7892C93A089B1898C9180648C935B
:1014E000938D848D981306C00288F389E02D808146
:1014F0008F7D80830895CF93DF93EC01888D8823BF
:10150000C9F0EA89FB89808185FD05C0A889B98970
:101510008C9186FD0FC00FB607FCF5CF808185FF4B
:10152000F2CFA889B9898C9185FFEDCFCE010E94B9
:101530005A0AE7CFDF91CF910895CF92DF92FF92C1
:101540000F931F93CF93DF931F92CDB7DEB76C013C
:10155000DC015B969C915B975C968C915C979813F1
:1015600007C05096ED91FC915197808185FD32C066
:10157000F601038D10E00F5F1F4F0F731127F02E40
:10158000F601848DF81211C00FB607FCF9CFD60111
:101590005096ED91FC915197808185FFF1CFC60166
:1015A00069830E945A0A6981EBCF838DE80FF11D90
:1015B000E35AFF4F6083D6015B960C935B9752967C
:1015C000ED91FC91539780818062808381E05896F1
:1015D0008C930DC0D6015696ED91FC915797608380
:1015E0005096ED91FC91519780818064808381E0D9
:1015F00090E00F90DF91CF911F910F91FF90DF90BE
:10160000CF900895BF92CF92DF92EF92FF92CF9347
:10161000DF93EC016A017B01B22EE889F98982E04F
:101620008083411581EE580761057105A1F060E0E6
:1016300079E08DE390E0A70196010E94020D215010
:101640003109410951095695479537952795211537
:1016500080E1380798F0E889F989108260E874E839
:101660008EE190E0A70196010E94020D2150310900
:10167000410951095695479537952795EC85FD8584
:101680003083EE85FF852083188EEC89FD89B0823A
:10169000EA89FB89808180618083EA89FB89808176
:1016A00088608083EA89FB89808180688083EA89F9
:1016B000FB8980818F7D8083DF91CF91FF90EF90B8
:1016C000DF90CF90BF9008951F920F920FB60F92A8
:1016D00011240BB60F922F938F939F93EF93FF9349
:1016E000E091F803F091F9038081E091FE03F0911D
:1016F000FF0382FD12C09081809101048F5F8F7380
:1017000020910204821751F0E0910104F0E0E851C9
:10171000FC4F958F8093010401C08081FF91EF9170
:101720009F918F912F910F900BBE0F900FBE0F9036
:101730001F9018951F920F920FB60F9211240BB69F
:101740000F922F933F934F935F936F937F938F935A
:101750009F93AF93BF93EF93FF9388EE93E00E9424
:101760005A0AFF91EF91BF91AF919F918F917F9115
:101770006F915F914F913F912F910F900BBE0F9002
:101780000FBE0F901F90189588EE93E00E94F0090D
:1017900021E0892B09F420E0822F08951092EB03B9
:1017A0001092EA0388EE93E0A0E0B0E08093EC03AF
:1017B0009093ED03A093EE03B093EF0387E192E0E3
:1017C0009093E9038093E80385EC90E09093F50310
:1017D0008093F40384EC90E09093F7038093F603F6
:1017E00080EC90E09093F9038093F80381EC90E013
:1017F0009093FB038093FA0382EC90E09093FD03B7
:101800008093FC0386EC90E09093FF038093FE03AB
:101810001092010410920204109203041092040426
:10182000089508950E94CB080E94110C0E94720135
:10183000CDE1DAE00E94A8012097E1F30E941D0AA1
:10184000F9CFCF92DF92EF92FF920F931F93CF9336
:10185000DF936C017A01EB01E60EF71E00E010E069
:10186000CE15DF0561F06991D601ED91FC910190F3
:10187000F081E02DC6011995080F191FF1CFC8019D
:10188000DF91CF911F910F91FF90EF90DF90CF905C
:1018900008956115710581F0DB010D900020E9F7D5
:1018A000AD0141505109461B570BDC01ED91FC91F4
:1018B0000280F381E02D199480E090E00895DC012E
:1018C000ED91FC910190F081E02D19940F931F93FD
:1018D000CF93DF93EC016DE00E945F0C8C016AE016
:1018E000CE010E945F0C800F911FDF91CF911F915D
:1018F0000F9108950F931F93CF93DF93EC010E94F4
:10190000490C8C01CE010E94660C800F911FDF9163
:10191000CF911F910F9108950F931F93CF93DF9352
:10192000EC010E945F0C8C01CE010E94660C800FBE
:10193000911FDF91CF911F910F9108954F925F9268
:101940006F927F92AF92BF92CF92DF92EF92FF920F
:101950000F931F93CF93DF93CDB7DEB729013A01E1
:10196000621B730B840B950B2A893B894C895D891B
:101970002A193B094C095D092A8B3B8B4C8B5D8BEB
:101980009B01AC016A897B898C899D890E94E60C48
:10199000E418F50806091709A80197010E94240D0B
:1019A0002A0D3B1D4C1D5D1DCA01B901DF91CF9170
:1019B0001F910F91FF90EF90DF90CF90BF90AF906D
:1019C0007F906F905F904F9008950895DB018F9303
:1019D0009F930E94490DBF91AF91A29F800D911DD1
:1019E000A39F900DB29F900D11240895991B79E04B
:1019F00004C0991F961708F0961B881F7A95C9F79F
:101A000080950895A1E21A2EAA1BBB1BFD010DC0F3
:101A1000AA1FBB1FEE1FFF1FA217B307E407F5079E
:101A200020F0A21BB30BE40BF50B661F771F881F7A
:101A3000991F1A9469F760957095809590959B0110
:101A4000AC01BD01CF010895052E97FB1EF4009453
:101A50000E943B0D57FD07D00E94020D07FC03D0EA
:101A60004EF40C943B0D50954095309521953F4F89
:101A70004F4F5F4F089590958095709561957F4F7A
:101A80008F4F9F4F0895EE0FFF1F0590F491E02DAB
:101A900019940E94580DA59F900DB49F900DA49F7E
:101AA000800D911D112408950790F691E02D199451
:101AB000A29FB001B39FC001A39F700D811D11248F
:101AC000911DB29F700D811D1124911D0895F894F0
:021AD000FFCF46
:101AD2000100000048656C6C6F20436F6D70757477
:101AE200657200000000009D0A210CF009090AFB42
:041AF200097B0A0062
:00000001FF
